{"abi":[{"inputs":[],"stateMutability":"nonpayable","type":"constructor"},{"anonymous":false,"inputs":[{"indexed":true,"internalType":"address","name":"oldOwner","type":"address"},{"indexed":true,"internalType":"address","name":"newOwner","type":"address"}],"name":"OwnerSet","type":"event"},{"anonymous":false,"inputs":[{"indexed":true,"internalType":"address","name":"previousOwner","type":"address"},{"indexed":true,"internalType":"address","name":"newOwner","type":"address"}],"name":"OwnershipTransferred","type":"event"},{"inputs":[],"name":"basePercent","outputs":[{"internalType":"uint256","name":"","type":"uint256"}],"stateMutability":"view","type":"function"},{"inputs":[{"internalType":"address","name":"newOwner","type":"address"}],"name":"changeOwner","outputs":[],"stateMutability":"nonpayable","type":"function"},{"inputs":[],"name":"getOwner","outputs":[{"internalType":"address","name":"","type":"address"}],"stateMutability":"view","type":"function"},{"inputs":[{"internalType":"address","name":"_seller","type":"address"}],"name":"hederaPayable","outputs":[],"stateMutability":"payable","type":"function"},{"inputs":[],"name":"hederaStringer","outputs":[{"internalType":"string","name":"","type":"string"}],"stateMutability":"nonpayable","type":"function"},{"inputs":[{"internalType":"uint256","name":"_value","type":"uint256"}],"name":"threePercent","outputs":[{"internalType":"uint256","name":"","type":"uint256"}],"stateMutability":"view","type":"function"}],"devdoc":{"details":"Set & change owner","kind":"dev","methods":{"changeOwner(address)":{"details":"Change owner","params":{"newOwner":"address of new owner"}},"constructor":{"details":"Set contract deployer as owner"},"getOwner()":{"details":"Return owner address","returns":{"_0":"address of owner"}}},"title":"Owner","version":1},"evm":{"assembly":"    /* \"HederaSwap.sol\":102:2272  contract HederaSwap {... */\n  mstore(0x40, 0x80)\n    /* \"HederaSwap.sol\":185:188  300 */\n  0x012c\n    /* \"HederaSwap.sol\":156:188  uint256 public basePercent = 300 */\n  0x01\n  sstore\n    /* \"HederaSwap.sol\":1024:1201  constructor() public {... */\n  callvalue\n  dup1\n  iszero\n  tag_1\n  jumpi\n  0x00\n  dup1\n  revert\ntag_1:\n  pop\n    /* \"HederaSwap.sol\":1063:1073  msg.sender */\n  caller\n    /* \"HederaSwap.sol\":1055:1060  owner */\n  0x00\n  dup1\n    /* \"HederaSwap.sol\":1055:1073  owner = msg.sender */\n  0x0100\n  exp\n  dup2\n  sload\n  dup2\n  0xffffffffffffffffffffffffffffffffffffffff\n  mul\n  not\n  and\n  swap1\n  dup4\n  0xffffffffffffffffffffffffffffffffffffffff\n  and\n  mul\n  or\n  swap1\n  sstore\n  pop\n    /* \"HederaSwap.sol\":1188:1193  owner */\n  0x00\n  dup1\n  sload\n  swap1\n  0x0100\n  exp\n  swap1\n  div\n  0xffffffffffffffffffffffffffffffffffffffff\n  and\n    /* \"HederaSwap.sol\":1167:1194  OwnerSet(address(0), owner) */\n  0xffffffffffffffffffffffffffffffffffffffff\n  and\n    /* \"HederaSwap.sol\":1184:1185  0 */\n  0x00\n    /* \"HederaSwap.sol\":1167:1194  OwnerSet(address(0), owner) */\n  0xffffffffffffffffffffffffffffffffffffffff\n  and\n  0x342827c97908e5e2f71151c08502a66d44b6f758e3ac2f1de95f02eb95f0a735\n  mload(0x40)\n  mload(0x40)\n  dup1\n  swap2\n  sub\n  swap1\n  log3\n    /* \"HederaSwap.sol\":102:2272  contract HederaSwap {... */\n  dataSize(sub_0)\n  dup1\n  dataOffset(sub_0)\n  0x00\n  codecopy\n  0x00\n  return\nstop\n\nsub_0: assembly {\n        /* \"HederaSwap.sol\":102:2272  contract HederaSwap {... */\n      mstore(0x40, 0x80)\n      jumpi(tag_1, lt(calldatasize, 0x04))\n      shr(0xe0, calldataload(0x00))\n      dup1\n      0x1d32c5ca\n      eq\n      tag_2\n      jumpi\n      dup1\n      0x3e3518e9\n      eq\n      tag_3\n      jumpi\n      dup1\n      0x893d20e8\n      eq\n      tag_4\n      jumpi\n      dup1\n      0xa118c2af\n      eq\n      tag_5\n      jumpi\n      dup1\n      0xa6f9dae1\n      eq\n      tag_6\n      jumpi\n      dup1\n      0xc5ac0ded\n      eq\n      tag_7\n      jumpi\n    tag_1:\n      0x00\n      dup1\n      revert\n        /* \"HederaSwap.sol\":1207:1298  function hederaStringer() public returns (string memory) {... */\n    tag_2:\n      callvalue\n      dup1\n      iszero\n      tag_8\n      jumpi\n      0x00\n      dup1\n      revert\n    tag_8:\n      pop\n      tag_9\n      tag_10\n      jump\t// in\n    tag_9:\n      mload(0x40)\n      tag_11\n      swap2\n      swap1\n      tag_12\n      jump\t// in\n    tag_11:\n      mload(0x40)\n      dup1\n      swap2\n      sub\n      swap1\n      return\n        /* \"HederaSwap.sol\":1304:1614  function hederaPayable(address _seller) public payable {... */\n    tag_3:\n      tag_13\n      0x04\n      dup1\n      calldatasize\n      sub\n      dup2\n      add\n      swap1\n      tag_14\n      swap2\n      swap1\n      tag_15\n      jump\t// in\n    tag_14:\n      tag_16\n      jump\t// in\n    tag_13:\n      stop\n        /* \"HederaSwap.sol\":2189:2270  function getOwner() external view returns (address) {... */\n    tag_4:\n      callvalue\n      dup1\n      iszero\n      tag_17\n      jumpi\n      0x00\n      dup1\n      revert\n    tag_17:\n      pop\n      tag_18\n      tag_19\n      jump\t// in\n    tag_18:\n      mload(0x40)\n      tag_20\n      swap2\n      swap1\n      tag_21\n      jump\t// in\n    tag_20:\n      mload(0x40)\n      dup1\n      swap2\n      sub\n      swap1\n      return\n        /* \"HederaSwap.sol\":1620:1884  function threePercent(uint256 _value) public view returns (uint256)  {... */\n    tag_5:\n      callvalue\n      dup1\n      iszero\n      tag_22\n      jumpi\n      0x00\n      dup1\n      revert\n    tag_22:\n      pop\n      tag_23\n      0x04\n      dup1\n      calldatasize\n      sub\n      dup2\n      add\n      swap1\n      tag_24\n      swap2\n      swap1\n      tag_25\n      jump\t// in\n    tag_24:\n      tag_26\n      jump\t// in\n    tag_23:\n      mload(0x40)\n      tag_27\n      swap2\n      swap1\n      tag_28\n      jump\t// in\n    tag_27:\n      mload(0x40)\n      dup1\n      swap2\n      sub\n      swap1\n      return\n        /* \"HederaSwap.sol\":1975:2102  function changeOwner(address newOwner) public isOwner {... */\n    tag_6:\n      callvalue\n      dup1\n      iszero\n      tag_29\n      jumpi\n      0x00\n      dup1\n      revert\n    tag_29:\n      pop\n      tag_30\n      0x04\n      dup1\n      calldatasize\n      sub\n      dup2\n      add\n      swap1\n      tag_31\n      swap2\n      swap1\n      tag_15\n      jump\t// in\n    tag_31:\n      tag_32\n      jump\t// in\n    tag_30:\n      stop\n        /* \"HederaSwap.sol\":156:188  uint256 public basePercent = 300 */\n    tag_7:\n      callvalue\n      dup1\n      iszero\n      tag_33\n      jumpi\n      0x00\n      dup1\n      revert\n    tag_33:\n      pop\n      tag_34\n      tag_35\n      jump\t// in\n    tag_34:\n      mload(0x40)\n      tag_36\n      swap2\n      swap1\n      tag_28\n      jump\t// in\n    tag_36:\n      mload(0x40)\n      dup1\n      swap2\n      sub\n      swap1\n      return\n        /* \"HederaSwap.sol\":1207:1298  function hederaStringer() public returns (string memory) {... */\n    tag_10:\n        /* \"HederaSwap.sol\":1249:1262  string memory */\n      0x60\n        /* \"HederaSwap.sol\":1275:1291  return \"working\" */\n      mload(0x40)\n      dup1\n      0x40\n      add\n      0x40\n      mstore\n      dup1\n      0x07\n      dup2\n      mstore\n      0x20\n      add\n      0x776f726b696e6700000000000000000000000000000000000000000000000000\n      dup2\n      mstore\n      pop\n      swap1\n      pop\n        /* \"HederaSwap.sol\":1207:1298  function hederaStringer() public returns (string memory) {... */\n      swap1\n      jump\t// out\n        /* \"HederaSwap.sol\":1304:1614  function hederaPayable(address _seller) public payable {... */\n    tag_16:\n        /* \"HederaSwap.sol\":1429:1440  uint256 cut */\n      0x00\n        /* \"HederaSwap.sol\":1443:1466  threePercent(msg.value) */\n      tag_39\n        /* \"HederaSwap.sol\":1456:1465  msg.value */\n      callvalue\n        /* \"HederaSwap.sol\":1443:1455  threePercent */\n      tag_26\n        /* \"HederaSwap.sol\":1443:1466  threePercent(msg.value) */\n      jump\t// in\n    tag_39:\n        /* \"HederaSwap.sol\":1429:1466  uint256 cut = threePercent(msg.value) */\n      swap1\n      pop\n        /* \"HederaSwap.sol\":1483:1488  owner */\n      0x00\n      dup1\n      sload\n      swap1\n      0x0100\n      exp\n      swap1\n      div\n      0xffffffffffffffffffffffffffffffffffffffff\n      and\n        /* \"HederaSwap.sol\":1475:1498  payable(owner).transfer */\n      0xffffffffffffffffffffffffffffffffffffffff\n      and\n        /* \"HederaSwap.sol\":1475:1503  payable(owner).transfer(cut) */\n      0x08fc\n        /* \"HederaSwap.sol\":1499:1502  cut */\n      dup3\n        /* \"HederaSwap.sol\":1475:1503  payable(owner).transfer(cut) */\n      swap1\n      dup2\n      iszero\n      mul\n      swap1\n      mload(0x40)\n      0x00\n      mload(0x40)\n      dup1\n      dup4\n      sub\n      dup2\n      dup6\n      dup9\n      dup9\n      call\n      swap4\n      pop\n      pop\n      pop\n      pop\n      iszero\n      dup1\n      iszero\n      tag_41\n      jumpi\n      returndatasize\n      0x00\n      dup1\n      returndatacopy\n      revert(0x00, returndatasize)\n    tag_41:\n      pop\n        /* \"HederaSwap.sol\":1519:1526  _seller */\n      dup2\n        /* \"HederaSwap.sol\":1511:1536  payable(_seller).transfer */\n      0xffffffffffffffffffffffffffffffffffffffff\n      and\n        /* \"HederaSwap.sol\":1511:1553  payable(_seller).transfer(msg.value - cut) */\n      0x08fc\n        /* \"HederaSwap.sol\":1549:1552  cut */\n      dup3\n        /* \"HederaSwap.sol\":1537:1546  msg.value */\n      callvalue\n        /* \"HederaSwap.sol\":1537:1552  msg.value - cut */\n      tag_42\n      swap2\n      swap1\n      tag_43\n      jump\t// in\n    tag_42:\n        /* \"HederaSwap.sol\":1511:1553  payable(_seller).transfer(msg.value - cut) */\n      swap1\n      dup2\n      iszero\n      mul\n      swap1\n      mload(0x40)\n      0x00\n      mload(0x40)\n      dup1\n      dup4\n      sub\n      dup2\n      dup6\n      dup9\n      dup9\n      call\n      swap4\n      pop\n      pop\n      pop\n      pop\n      iszero\n      dup1\n      iszero\n      tag_45\n      jumpi\n      returndatasize\n      0x00\n      dup1\n      returndatacopy\n      revert(0x00, returndatasize)\n    tag_45:\n      pop\n        /* \"HederaSwap.sol\":1596:1606  msg.sender */\n      caller\n        /* \"HederaSwap.sol\":1566:1607  OwnershipTransferred(_seller, msg.sender) */\n      0xffffffffffffffffffffffffffffffffffffffff\n      and\n        /* \"HederaSwap.sol\":1587:1594  _seller */\n      dup3\n        /* \"HederaSwap.sol\":1566:1607  OwnershipTransferred(_seller, msg.sender) */\n      0xffffffffffffffffffffffffffffffffffffffff\n      and\n      0x8be0079c531659141344cd1fd0a4f28419497f9722a3daafe3b4186f6b6457e0\n      mload(0x40)\n      mload(0x40)\n      dup1\n      swap2\n      sub\n      swap1\n      log3\n        /* \"HederaSwap.sol\":1304:1614  function hederaPayable(address _seller) public payable {... */\n      pop\n      pop\n      jump\t// out\n        /* \"HederaSwap.sol\":2189:2270  function getOwner() external view returns (address) {... */\n    tag_19:\n        /* \"HederaSwap.sol\":2232:2239  address */\n      0x00\n        /* \"HederaSwap.sol\":2258:2263  owner */\n      dup1\n      0x00\n      swap1\n      sload\n      swap1\n      0x0100\n      exp\n      swap1\n      div\n      0xffffffffffffffffffffffffffffffffffffffff\n      and\n        /* \"HederaSwap.sol\":2251:2263  return owner */\n      swap1\n      pop\n        /* \"HederaSwap.sol\":2189:2270  function getOwner() external view returns (address) {... */\n      swap1\n      jump\t// out\n        /* \"HederaSwap.sol\":1620:1884  function threePercent(uint256 _value) public view returns (uint256)  {... */\n    tag_26:\n        /* \"HederaSwap.sol\":1679:1686  uint256 */\n      0x00\n        /* \"HederaSwap.sol\":1699:1717  uint256 roundValue */\n      dup1\n        /* \"HederaSwap.sol\":1720:1754  SafeMath.ceil(_value, basePercent) */\n      tag_48\n        /* \"HederaSwap.sol\":1734:1740  _value */\n      dup4\n        /* \"HederaSwap.sol\":1742:1753  basePercent */\n      sload(0x01)\n        /* \"HederaSwap.sol\":1720:1733  SafeMath.ceil */\n      tag_49\n        /* \"HederaSwap.sol\":1720:1754  SafeMath.ceil(_value, basePercent) */\n      jump\t// in\n    tag_48:\n        /* \"HederaSwap.sol\":1699:1754  uint256 roundValue = SafeMath.ceil(_value, basePercent) */\n      swap1\n      pop\n        /* \"HederaSwap.sol\":1765:1786  uint256 _threePercent */\n      0x00\n        /* \"HederaSwap.sol\":1789:1847  SafeMath.div(SafeMath.mul(roundValue, basePercent), 10000) */\n      tag_50\n        /* \"HederaSwap.sol\":1802:1839  SafeMath.mul(roundValue, basePercent) */\n      tag_51\n        /* \"HederaSwap.sol\":1815:1825  roundValue */\n      dup4\n        /* \"HederaSwap.sol\":1827:1838  basePercent */\n      sload(0x01)\n        /* \"HederaSwap.sol\":1802:1814  SafeMath.mul */\n      tag_52\n        /* \"HederaSwap.sol\":1802:1839  SafeMath.mul(roundValue, basePercent) */\n      jump\t// in\n    tag_51:\n        /* \"HederaSwap.sol\":1841:1846  10000 */\n      0x2710\n        /* \"HederaSwap.sol\":1789:1801  SafeMath.div */\n      tag_53\n        /* \"HederaSwap.sol\":1789:1847  SafeMath.div(SafeMath.mul(roundValue, basePercent), 10000) */\n      jump\t// in\n    tag_50:\n        /* \"HederaSwap.sol\":1765:1847  uint256 _threePercent = SafeMath.div(SafeMath.mul(roundValue, basePercent), 10000) */\n      swap1\n      pop\n        /* \"HederaSwap.sol\":1864:1877  _threePercent */\n      dup1\n        /* \"HederaSwap.sol\":1857:1877  return _threePercent */\n      swap3\n      pop\n      pop\n      pop\n        /* \"HederaSwap.sol\":1620:1884  function threePercent(uint256 _value) public view returns (uint256)  {... */\n      swap2\n      swap1\n      pop\n      jump\t// out\n        /* \"HederaSwap.sol\":1975:2102  function changeOwner(address newOwner) public isOwner {... */\n    tag_32:\n        /* \"HederaSwap.sol\":912:917  owner */\n      0x00\n      dup1\n      sload\n      swap1\n      0x0100\n      exp\n      swap1\n      div\n      0xffffffffffffffffffffffffffffffffffffffff\n      and\n        /* \"HederaSwap.sol\":898:917  msg.sender == owner */\n      0xffffffffffffffffffffffffffffffffffffffff\n      and\n        /* \"HederaSwap.sol\":898:908  msg.sender */\n      caller\n        /* \"HederaSwap.sol\":898:917  msg.sender == owner */\n      0xffffffffffffffffffffffffffffffffffffffff\n      and\n      eq\n        /* \"HederaSwap.sol\":890:941  require(msg.sender == owner, \"Caller is not owner\") */\n      tag_55\n      jumpi\n      mload(0x40)\n      0x08c379a000000000000000000000000000000000000000000000000000000000\n      dup2\n      mstore\n      0x04\n      add\n      tag_56\n      swap1\n      tag_57\n      jump\t// in\n    tag_56:\n      mload(0x40)\n      dup1\n      swap2\n      sub\n      swap1\n      revert\n    tag_55:\n        /* \"HederaSwap.sol\":2060:2068  newOwner */\n      dup1\n        /* \"HederaSwap.sol\":2044:2069  OwnerSet(owner, newOwner) */\n      0xffffffffffffffffffffffffffffffffffffffff\n      and\n        /* \"HederaSwap.sol\":2053:2058  owner */\n      0x00\n      dup1\n      sload\n      swap1\n      0x0100\n      exp\n      swap1\n      div\n      0xffffffffffffffffffffffffffffffffffffffff\n      and\n        /* \"HederaSwap.sol\":2044:2069  OwnerSet(owner, newOwner) */\n      0xffffffffffffffffffffffffffffffffffffffff\n      and\n      0x342827c97908e5e2f71151c08502a66d44b6f758e3ac2f1de95f02eb95f0a735\n      mload(0x40)\n      mload(0x40)\n      dup1\n      swap2\n      sub\n      swap1\n      log3\n        /* \"HederaSwap.sol\":2087:2095  newOwner */\n      dup1\n        /* \"HederaSwap.sol\":2079:2084  owner */\n      0x00\n      dup1\n        /* \"HederaSwap.sol\":2079:2095  owner = newOwner */\n      0x0100\n      exp\n      dup2\n      sload\n      dup2\n      0xffffffffffffffffffffffffffffffffffffffff\n      mul\n      not\n      and\n      swap1\n      dup4\n      0xffffffffffffffffffffffffffffffffffffffff\n      and\n      mul\n      or\n      swap1\n      sstore\n      pop\n        /* \"HederaSwap.sol\":1975:2102  function changeOwner(address newOwner) public isOwner {... */\n      pop\n      jump\t// out\n        /* \"HederaSwap.sol\":156:188  uint256 public basePercent = 300 */\n    tag_35:\n      sload(0x01)\n      dup2\n      jump\t// out\n        /* \"SafeMath.sol\":656:823   */\n    tag_49:\n        /* \"SafeMath.sol\":715:722   */\n      0x00\n        /* \"SafeMath.sol\":734:743   */\n      dup1\n        /* \"SafeMath.sol\":746:754   */\n      tag_60\n        /* \"SafeMath.sol\":750:751   */\n      dup5\n        /* \"SafeMath.sol\":752:753   */\n      dup5\n        /* \"SafeMath.sol\":746:749   */\n      tag_61\n        /* \"SafeMath.sol\":746:754   */\n      jump\t// in\n    tag_60:\n        /* \"SafeMath.sol\":734:754   */\n      swap1\n      pop\n        /* \"SafeMath.sol\":764:773   */\n      0x00\n        /* \"SafeMath.sol\":776:784   */\n      tag_62\n        /* \"SafeMath.sol\":780:781   */\n      dup3\n        /* \"SafeMath.sol\":782:783   */\n      0x01\n        /* \"SafeMath.sol\":776:779   */\n      tag_63\n        /* \"SafeMath.sol\":776:784   */\n      jump\t// in\n    tag_62:\n        /* \"SafeMath.sol\":764:784   */\n      swap1\n      pop\n        /* \"SafeMath.sol\":801:816   */\n      tag_64\n        /* \"SafeMath.sol\":805:813   */\n      tag_65\n        /* \"SafeMath.sol\":809:810   */\n      dup3\n        /* \"SafeMath.sol\":811:812   */\n      dup7\n        /* \"SafeMath.sol\":805:808   */\n      tag_53\n        /* \"SafeMath.sol\":805:813   */\n      jump\t// in\n    tag_65:\n        /* \"SafeMath.sol\":814:815   */\n      dup6\n        /* \"SafeMath.sol\":801:804   */\n      tag_52\n        /* \"SafeMath.sol\":801:816   */\n      jump\t// in\n    tag_64:\n        /* \"SafeMath.sol\":794:816   */\n      swap3\n      pop\n      pop\n      pop\n        /* \"SafeMath.sol\":656:823   */\n      swap3\n      swap2\n      pop\n      pop\n      jump\t// out\n        /* \"SafeMath.sol\":49:250   */\n    tag_52:\n        /* \"SafeMath.sol\":107:114   */\n      0x00\n        /* \"SafeMath.sol\":135:136   */\n      dup1\n        /* \"SafeMath.sol\":130:131   */\n      dup4\n        /* \"SafeMath.sol\":130:136   */\n      eq\n        /* \"SafeMath.sol\":126:171   */\n      iszero\n      tag_67\n      jumpi\n        /* \"SafeMath.sol\":159:160   */\n      0x00\n        /* \"SafeMath.sol\":152:160   */\n      swap1\n      pop\n      jump(tag_66)\n        /* \"SafeMath.sol\":126:171   */\n    tag_67:\n        /* \"SafeMath.sol\":180:189   */\n      0x00\n        /* \"SafeMath.sol\":196:197   */\n      dup3\n        /* \"SafeMath.sol\":192:193   */\n      dup5\n        /* \"SafeMath.sol\":192:197   */\n      tag_68\n      swap2\n      swap1\n      tag_69\n      jump\t// in\n    tag_68:\n        /* \"SafeMath.sol\":180:197   */\n      swap1\n      pop\n        /* \"SafeMath.sol\":223:224   */\n      dup3\n        /* \"SafeMath.sol\":218:219   */\n      dup5\n        /* \"SafeMath.sol\":214:215   */\n      dup3\n        /* \"SafeMath.sol\":214:219   */\n      tag_70\n      swap2\n      swap1\n      tag_71\n      jump\t// in\n    tag_70:\n        /* \"SafeMath.sol\":214:224   */\n      eq\n        /* \"SafeMath.sol\":207:225   */\n      tag_72\n      jumpi\n      mstore(0x00, 0x4e487b7100000000000000000000000000000000000000000000000000000000)\n      mstore(0x04, 0x01)\n      revert(0x00, 0x24)\n    tag_72:\n        /* \"SafeMath.sol\":242:243   */\n      dup1\n        /* \"SafeMath.sol\":235:243   */\n      swap2\n      pop\n      pop\n        /* \"SafeMath.sol\":49:250   */\n    tag_66:\n      swap3\n      swap2\n      pop\n      pop\n      jump\t// out\n        /* \"SafeMath.sol\":256:375   */\n    tag_53:\n        /* \"SafeMath.sol\":314:321   */\n      0x00\n        /* \"SafeMath.sol\":333:342   */\n      dup1\n        /* \"SafeMath.sol\":349:350   */\n      dup3\n        /* \"SafeMath.sol\":345:346   */\n      dup5\n        /* \"SafeMath.sol\":345:350   */\n      tag_74\n      swap2\n      swap1\n      tag_71\n      jump\t// in\n    tag_74:\n        /* \"SafeMath.sol\":333:350   */\n      swap1\n      pop\n        /* \"SafeMath.sol\":367:368   */\n      dup1\n        /* \"SafeMath.sol\":360:368   */\n      swap2\n      pop\n      pop\n        /* \"SafeMath.sol\":256:375   */\n      swap3\n      swap2\n      pop\n      pop\n      jump\t// out\n        /* \"SafeMath.sol\":507:650   */\n    tag_61:\n        /* \"SafeMath.sol\":565:572   */\n      0x00\n        /* \"SafeMath.sol\":584:593   */\n      dup1\n        /* \"SafeMath.sol\":600:601   */\n      dup3\n        /* \"SafeMath.sol\":596:597   */\n      dup5\n        /* \"SafeMath.sol\":596:601   */\n      tag_76\n      swap2\n      swap1\n      tag_77\n      jump\t// in\n    tag_76:\n        /* \"SafeMath.sol\":584:601   */\n      swap1\n      pop\n        /* \"SafeMath.sol\":623:624   */\n      dup4\n        /* \"SafeMath.sol\":618:619   */\n      dup2\n        /* \"SafeMath.sol\":618:624   */\n      lt\n      iszero\n        /* \"SafeMath.sol\":611:625   */\n      tag_78\n      jumpi\n      mstore(0x00, 0x4e487b7100000000000000000000000000000000000000000000000000000000)\n      mstore(0x04, 0x01)\n      revert(0x00, 0x24)\n    tag_78:\n        /* \"SafeMath.sol\":642:643   */\n      dup1\n        /* \"SafeMath.sol\":635:643   */\n      swap2\n      pop\n      pop\n        /* \"SafeMath.sol\":507:650   */\n      swap3\n      swap2\n      pop\n      pop\n      jump\t// out\n        /* \"SafeMath.sol\":381:501   */\n    tag_63:\n        /* \"SafeMath.sol\":439:446   */\n      0x00\n        /* \"SafeMath.sol\":470:471   */\n      dup3\n        /* \"SafeMath.sol\":465:466   */\n      dup3\n        /* \"SafeMath.sol\":465:471   */\n      gt\n      iszero\n        /* \"SafeMath.sol\":458:472   */\n      tag_80\n      jumpi\n      mstore(0x00, 0x4e487b7100000000000000000000000000000000000000000000000000000000)\n      mstore(0x04, 0x01)\n      revert(0x00, 0x24)\n    tag_80:\n        /* \"SafeMath.sol\":493:494   */\n      dup2\n        /* \"SafeMath.sol\":489:490   */\n      dup4\n        /* \"SafeMath.sol\":489:494   */\n      tag_81\n      swap2\n      swap1\n      tag_43\n      jump\t// in\n    tag_81:\n        /* \"SafeMath.sol\":482:494   */\n      swap1\n      pop\n        /* \"SafeMath.sol\":381:501   */\n      swap3\n      swap2\n      pop\n      pop\n      jump\t// out\n        /* \"#utility.yul\":7:146   */\n    tag_83:\n      0x00\n        /* \"#utility.yul\":91:97   */\n      dup2\n        /* \"#utility.yul\":78:98   */\n      calldataload\n        /* \"#utility.yul\":69:98   */\n      swap1\n      pop\n        /* \"#utility.yul\":107:140   */\n      tag_85\n        /* \"#utility.yul\":134:139   */\n      dup2\n        /* \"#utility.yul\":107:140   */\n      tag_86\n      jump\t// in\n    tag_85:\n        /* \"#utility.yul\":59:146   */\n      swap3\n      swap2\n      pop\n      pop\n      jump\t// out\n        /* \"#utility.yul\":152:291   */\n    tag_87:\n      0x00\n        /* \"#utility.yul\":236:242   */\n      dup2\n        /* \"#utility.yul\":223:243   */\n      calldataload\n        /* \"#utility.yul\":214:243   */\n      swap1\n      pop\n        /* \"#utility.yul\":252:285   */\n      tag_89\n        /* \"#utility.yul\":279:284   */\n      dup2\n        /* \"#utility.yul\":252:285   */\n      tag_90\n      jump\t// in\n    tag_89:\n        /* \"#utility.yul\":204:291   */\n      swap3\n      swap2\n      pop\n      pop\n      jump\t// out\n        /* \"#utility.yul\":297:559   */\n    tag_15:\n      0x00\n        /* \"#utility.yul\":405:407   */\n      0x20\n        /* \"#utility.yul\":393:402   */\n      dup3\n        /* \"#utility.yul\":384:391   */\n      dup5\n        /* \"#utility.yul\":380:403   */\n      sub\n        /* \"#utility.yul\":376:408   */\n      slt\n        /* \"#utility.yul\":373:375   */\n      iszero\n      tag_92\n      jumpi\n        /* \"#utility.yul\":421:422   */\n      0x00\n        /* \"#utility.yul\":418:419   */\n      dup1\n        /* \"#utility.yul\":411:423   */\n      revert\n        /* \"#utility.yul\":373:375   */\n    tag_92:\n        /* \"#utility.yul\":464:465   */\n      0x00\n        /* \"#utility.yul\":489:542   */\n      tag_93\n        /* \"#utility.yul\":534:541   */\n      dup5\n        /* \"#utility.yul\":525:531   */\n      dup3\n        /* \"#utility.yul\":514:523   */\n      dup6\n        /* \"#utility.yul\":510:532   */\n      add\n        /* \"#utility.yul\":489:542   */\n      tag_83\n      jump\t// in\n    tag_93:\n        /* \"#utility.yul\":479:542   */\n      swap2\n      pop\n        /* \"#utility.yul\":435:552   */\n      pop\n        /* \"#utility.yul\":363:559   */\n      swap3\n      swap2\n      pop\n      pop\n      jump\t// out\n        /* \"#utility.yul\":565:827   */\n    tag_25:\n      0x00\n        /* \"#utility.yul\":673:675   */\n      0x20\n        /* \"#utility.yul\":661:670   */\n      dup3\n        /* \"#utility.yul\":652:659   */\n      dup5\n        /* \"#utility.yul\":648:671   */\n      sub\n        /* \"#utility.yul\":644:676   */\n      slt\n        /* \"#utility.yul\":641:643   */\n      iszero\n      tag_95\n      jumpi\n        /* \"#utility.yul\":689:690   */\n      0x00\n        /* \"#utility.yul\":686:687   */\n      dup1\n        /* \"#utility.yul\":679:691   */\n      revert\n        /* \"#utility.yul\":641:643   */\n    tag_95:\n        /* \"#utility.yul\":732:733   */\n      0x00\n        /* \"#utility.yul\":757:810   */\n      tag_96\n        /* \"#utility.yul\":802:809   */\n      dup5\n        /* \"#utility.yul\":793:799   */\n      dup3\n        /* \"#utility.yul\":782:791   */\n      dup6\n        /* \"#utility.yul\":778:800   */\n      add\n        /* \"#utility.yul\":757:810   */\n      tag_87\n      jump\t// in\n    tag_96:\n        /* \"#utility.yul\":747:810   */\n      swap2\n      pop\n        /* \"#utility.yul\":703:820   */\n      pop\n        /* \"#utility.yul\":631:827   */\n      swap3\n      swap2\n      pop\n      pop\n      jump\t// out\n        /* \"#utility.yul\":833:951   */\n    tag_97:\n        /* \"#utility.yul\":920:944   */\n      tag_99\n        /* \"#utility.yul\":938:943   */\n      dup2\n        /* \"#utility.yul\":920:944   */\n      tag_100\n      jump\t// in\n    tag_99:\n        /* \"#utility.yul\":915:918   */\n      dup3\n        /* \"#utility.yul\":908:945   */\n      mstore\n        /* \"#utility.yul\":898:951   */\n      pop\n      pop\n      jump\t// out\n        /* \"#utility.yul\":957:1321   */\n    tag_101:\n      0x00\n        /* \"#utility.yul\":1073:1112   */\n      tag_103\n        /* \"#utility.yul\":1106:1111   */\n      dup3\n        /* \"#utility.yul\":1073:1112   */\n      tag_104\n      jump\t// in\n    tag_103:\n        /* \"#utility.yul\":1128:1199   */\n      tag_105\n        /* \"#utility.yul\":1192:1198   */\n      dup2\n        /* \"#utility.yul\":1187:1190   */\n      dup6\n        /* \"#utility.yul\":1128:1199   */\n      tag_106\n      jump\t// in\n    tag_105:\n        /* \"#utility.yul\":1121:1199   */\n      swap4\n      pop\n        /* \"#utility.yul\":1208:1260   */\n      tag_107\n        /* \"#utility.yul\":1253:1259   */\n      dup2\n        /* \"#utility.yul\":1248:1251   */\n      dup6\n        /* \"#utility.yul\":1241:1245   */\n      0x20\n        /* \"#utility.yul\":1234:1239   */\n      dup7\n        /* \"#utility.yul\":1230:1246   */\n      add\n        /* \"#utility.yul\":1208:1260   */\n      tag_108\n      jump\t// in\n    tag_107:\n        /* \"#utility.yul\":1285:1314   */\n      tag_109\n        /* \"#utility.yul\":1307:1313   */\n      dup2\n        /* \"#utility.yul\":1285:1314   */\n      tag_110\n      jump\t// in\n    tag_109:\n        /* \"#utility.yul\":1280:1283   */\n      dup5\n        /* \"#utility.yul\":1276:1315   */\n      add\n        /* \"#utility.yul\":1269:1315   */\n      swap2\n      pop\n        /* \"#utility.yul\":1049:1321   */\n      pop\n      swap3\n      swap2\n      pop\n      pop\n      jump\t// out\n        /* \"#utility.yul\":1327:1644   */\n    tag_111:\n      0x00\n        /* \"#utility.yul\":1490:1557   */\n      tag_113\n        /* \"#utility.yul\":1554:1556   */\n      0x13\n        /* \"#utility.yul\":1549:1552   */\n      dup4\n        /* \"#utility.yul\":1490:1557   */\n      tag_106\n      jump\t// in\n    tag_113:\n        /* \"#utility.yul\":1483:1557   */\n      swap2\n      pop\n        /* \"#utility.yul\":1587:1608   */\n      0x43616c6c6572206973206e6f74206f776e657200000000000000000000000000\n        /* \"#utility.yul\":1583:1584   */\n      0x00\n        /* \"#utility.yul\":1578:1581   */\n      dup4\n        /* \"#utility.yul\":1574:1585   */\n      add\n        /* \"#utility.yul\":1567:1609   */\n      mstore\n        /* \"#utility.yul\":1635:1637   */\n      0x20\n        /* \"#utility.yul\":1630:1633   */\n      dup3\n        /* \"#utility.yul\":1626:1638   */\n      add\n        /* \"#utility.yul\":1619:1638   */\n      swap1\n      pop\n        /* \"#utility.yul\":1473:1644   */\n      swap2\n      swap1\n      pop\n      jump\t// out\n        /* \"#utility.yul\":1650:1768   */\n    tag_114:\n        /* \"#utility.yul\":1737:1761   */\n      tag_116\n        /* \"#utility.yul\":1755:1760   */\n      dup2\n        /* \"#utility.yul\":1737:1761   */\n      tag_117\n      jump\t// in\n    tag_116:\n        /* \"#utility.yul\":1732:1735   */\n      dup3\n        /* \"#utility.yul\":1725:1762   */\n      mstore\n        /* \"#utility.yul\":1715:1768   */\n      pop\n      pop\n      jump\t// out\n        /* \"#utility.yul\":1774:1996   */\n    tag_21:\n      0x00\n        /* \"#utility.yul\":1905:1907   */\n      0x20\n        /* \"#utility.yul\":1894:1903   */\n      dup3\n        /* \"#utility.yul\":1890:1908   */\n      add\n        /* \"#utility.yul\":1882:1908   */\n      swap1\n      pop\n        /* \"#utility.yul\":1918:1989   */\n      tag_119\n        /* \"#utility.yul\":1986:1987   */\n      0x00\n        /* \"#utility.yul\":1975:1984   */\n      dup4\n        /* \"#utility.yul\":1971:1988   */\n      add\n        /* \"#utility.yul\":1962:1968   */\n      dup5\n        /* \"#utility.yul\":1918:1989   */\n      tag_97\n      jump\t// in\n    tag_119:\n        /* \"#utility.yul\":1872:1996   */\n      swap3\n      swap2\n      pop\n      pop\n      jump\t// out\n        /* \"#utility.yul\":2002:2315   */\n    tag_12:\n      0x00\n        /* \"#utility.yul\":2153:2155   */\n      0x20\n        /* \"#utility.yul\":2142:2151   */\n      dup3\n        /* \"#utility.yul\":2138:2156   */\n      add\n        /* \"#utility.yul\":2130:2156   */\n      swap1\n      pop\n        /* \"#utility.yul\":2202:2211   */\n      dup2\n        /* \"#utility.yul\":2196:2200   */\n      dup2\n        /* \"#utility.yul\":2192:2212   */\n      sub\n        /* \"#utility.yul\":2188:2189   */\n      0x00\n        /* \"#utility.yul\":2177:2186   */\n      dup4\n        /* \"#utility.yul\":2173:2190   */\n      add\n        /* \"#utility.yul\":2166:2213   */\n      mstore\n        /* \"#utility.yul\":2230:2308   */\n      tag_121\n        /* \"#utility.yul\":2303:2307   */\n      dup2\n        /* \"#utility.yul\":2294:2300   */\n      dup5\n        /* \"#utility.yul\":2230:2308   */\n      tag_101\n      jump\t// in\n    tag_121:\n        /* \"#utility.yul\":2222:2308   */\n      swap1\n      pop\n        /* \"#utility.yul\":2120:2315   */\n      swap3\n      swap2\n      pop\n      pop\n      jump\t// out\n        /* \"#utility.yul\":2321:2740   */\n    tag_57:\n      0x00\n        /* \"#utility.yul\":2525:2527   */\n      0x20\n        /* \"#utility.yul\":2514:2523   */\n      dup3\n        /* \"#utility.yul\":2510:2528   */\n      add\n        /* \"#utility.yul\":2502:2528   */\n      swap1\n      pop\n        /* \"#utility.yul\":2574:2583   */\n      dup2\n        /* \"#utility.yul\":2568:2572   */\n      dup2\n        /* \"#utility.yul\":2564:2584   */\n      sub\n        /* \"#utility.yul\":2560:2561   */\n      0x00\n        /* \"#utility.yul\":2549:2558   */\n      dup4\n        /* \"#utility.yul\":2545:2562   */\n      add\n        /* \"#utility.yul\":2538:2585   */\n      mstore\n        /* \"#utility.yul\":2602:2733   */\n      tag_123\n        /* \"#utility.yul\":2728:2732   */\n      dup2\n        /* \"#utility.yul\":2602:2733   */\n      tag_111\n      jump\t// in\n    tag_123:\n        /* \"#utility.yul\":2594:2733   */\n      swap1\n      pop\n        /* \"#utility.yul\":2492:2740   */\n      swap2\n      swap1\n      pop\n      jump\t// out\n        /* \"#utility.yul\":2746:2968   */\n    tag_28:\n      0x00\n        /* \"#utility.yul\":2877:2879   */\n      0x20\n        /* \"#utility.yul\":2866:2875   */\n      dup3\n        /* \"#utility.yul\":2862:2880   */\n      add\n        /* \"#utility.yul\":2854:2880   */\n      swap1\n      pop\n        /* \"#utility.yul\":2890:2961   */\n      tag_125\n        /* \"#utility.yul\":2958:2959   */\n      0x00\n        /* \"#utility.yul\":2947:2956   */\n      dup4\n        /* \"#utility.yul\":2943:2960   */\n      add\n        /* \"#utility.yul\":2934:2940   */\n      dup5\n        /* \"#utility.yul\":2890:2961   */\n      tag_114\n      jump\t// in\n    tag_125:\n        /* \"#utility.yul\":2844:2968   */\n      swap3\n      swap2\n      pop\n      pop\n      jump\t// out\n        /* \"#utility.yul\":2974:3073   */\n    tag_104:\n      0x00\n        /* \"#utility.yul\":3060:3065   */\n      dup2\n        /* \"#utility.yul\":3054:3066   */\n      mload\n        /* \"#utility.yul\":3044:3066   */\n      swap1\n      pop\n        /* \"#utility.yul\":3033:3073   */\n      swap2\n      swap1\n      pop\n      jump\t// out\n        /* \"#utility.yul\":3079:3248   */\n    tag_106:\n      0x00\n        /* \"#utility.yul\":3197:3203   */\n      dup3\n        /* \"#utility.yul\":3192:3195   */\n      dup3\n        /* \"#utility.yul\":3185:3204   */\n      mstore\n        /* \"#utility.yul\":3237:3241   */\n      0x20\n        /* \"#utility.yul\":3232:3235   */\n      dup3\n        /* \"#utility.yul\":3228:3242   */\n      add\n        /* \"#utility.yul\":3213:3242   */\n      swap1\n      pop\n        /* \"#utility.yul\":3175:3248   */\n      swap3\n      swap2\n      pop\n      pop\n      jump\t// out\n        /* \"#utility.yul\":3254:3559   */\n    tag_77:\n      0x00\n        /* \"#utility.yul\":3313:3333   */\n      tag_129\n        /* \"#utility.yul\":3331:3332   */\n      dup3\n        /* \"#utility.yul\":3313:3333   */\n      tag_117\n      jump\t// in\n    tag_129:\n        /* \"#utility.yul\":3308:3333   */\n      swap2\n      pop\n        /* \"#utility.yul\":3347:3367   */\n      tag_130\n        /* \"#utility.yul\":3365:3366   */\n      dup4\n        /* \"#utility.yul\":3347:3367   */\n      tag_117\n      jump\t// in\n    tag_130:\n        /* \"#utility.yul\":3342:3367   */\n      swap3\n      pop\n        /* \"#utility.yul\":3501:3502   */\n      dup3\n        /* \"#utility.yul\":3433:3499   */\n      0xffffffffffffffffffffffffffffffffffffffffffffffffffffffffffffffff\n        /* \"#utility.yul\":3429:3503   */\n      sub\n        /* \"#utility.yul\":3426:3427   */\n      dup3\n        /* \"#utility.yul\":3423:3504   */\n      gt\n        /* \"#utility.yul\":3420:3422   */\n      iszero\n      tag_131\n      jumpi\n        /* \"#utility.yul\":3507:3525   */\n      tag_132\n      tag_133\n      jump\t// in\n    tag_132:\n        /* \"#utility.yul\":3420:3422   */\n    tag_131:\n        /* \"#utility.yul\":3551:3552   */\n      dup3\n        /* \"#utility.yul\":3548:3549   */\n      dup3\n        /* \"#utility.yul\":3544:3553   */\n      add\n        /* \"#utility.yul\":3537:3553   */\n      swap1\n      pop\n        /* \"#utility.yul\":3298:3559   */\n      swap3\n      swap2\n      pop\n      pop\n      jump\t// out\n        /* \"#utility.yul\":3565:3750   */\n    tag_71:\n      0x00\n        /* \"#utility.yul\":3622:3642   */\n      tag_135\n        /* \"#utility.yul\":3640:3641   */\n      dup3\n        /* \"#utility.yul\":3622:3642   */\n      tag_117\n      jump\t// in\n    tag_135:\n        /* \"#utility.yul\":3617:3642   */\n      swap2\n      pop\n        /* \"#utility.yul\":3656:3676   */\n      tag_136\n        /* \"#utility.yul\":3674:3675   */\n      dup4\n        /* \"#utility.yul\":3656:3676   */\n      tag_117\n      jump\t// in\n    tag_136:\n        /* \"#utility.yul\":3651:3676   */\n      swap3\n      pop\n        /* \"#utility.yul\":3695:3696   */\n      dup3\n        /* \"#utility.yul\":3685:3687   */\n      tag_137\n      jumpi\n        /* \"#utility.yul\":3700:3718   */\n      tag_138\n      tag_139\n      jump\t// in\n    tag_138:\n        /* \"#utility.yul\":3685:3687   */\n    tag_137:\n        /* \"#utility.yul\":3742:3743   */\n      dup3\n        /* \"#utility.yul\":3739:3740   */\n      dup3\n        /* \"#utility.yul\":3735:3744   */\n      div\n        /* \"#utility.yul\":3730:3744   */\n      swap1\n      pop\n        /* \"#utility.yul\":3607:3750   */\n      swap3\n      swap2\n      pop\n      pop\n      jump\t// out\n        /* \"#utility.yul\":3756:4104   */\n    tag_69:\n      0x00\n        /* \"#utility.yul\":3819:3839   */\n      tag_141\n        /* \"#utility.yul\":3837:3838   */\n      dup3\n        /* \"#utility.yul\":3819:3839   */\n      tag_117\n      jump\t// in\n    tag_141:\n        /* \"#utility.yul\":3814:3839   */\n      swap2\n      pop\n        /* \"#utility.yul\":3853:3873   */\n      tag_142\n        /* \"#utility.yul\":3871:3872   */\n      dup4\n        /* \"#utility.yul\":3853:3873   */\n      tag_117\n      jump\t// in\n    tag_142:\n        /* \"#utility.yul\":3848:3873   */\n      swap3\n      pop\n        /* \"#utility.yul\":4041:4042   */\n      dup2\n        /* \"#utility.yul\":3973:4039   */\n      0xffffffffffffffffffffffffffffffffffffffffffffffffffffffffffffffff\n        /* \"#utility.yul\":3969:4043   */\n      div\n        /* \"#utility.yul\":3966:3967   */\n      dup4\n        /* \"#utility.yul\":3963:4044   */\n      gt\n        /* \"#utility.yul\":3958:3959   */\n      dup3\n        /* \"#utility.yul\":3951:3960   */\n      iszero\n        /* \"#utility.yul\":3944:3961   */\n      iszero\n        /* \"#utility.yul\":3940:4045   */\n      and\n        /* \"#utility.yul\":3937:3939   */\n      iszero\n      tag_143\n      jumpi\n        /* \"#utility.yul\":4048:4066   */\n      tag_144\n      tag_133\n      jump\t// in\n    tag_144:\n        /* \"#utility.yul\":3937:3939   */\n    tag_143:\n        /* \"#utility.yul\":4096:4097   */\n      dup3\n        /* \"#utility.yul\":4093:4094   */\n      dup3\n        /* \"#utility.yul\":4089:4098   */\n      mul\n        /* \"#utility.yul\":4078:4098   */\n      swap1\n      pop\n        /* \"#utility.yul\":3804:4104   */\n      swap3\n      swap2\n      pop\n      pop\n      jump\t// out\n        /* \"#utility.yul\":4110:4301   */\n    tag_43:\n      0x00\n        /* \"#utility.yul\":4170:4190   */\n      tag_146\n        /* \"#utility.yul\":4188:4189   */\n      dup3\n        /* \"#utility.yul\":4170:4190   */\n      tag_117\n      jump\t// in\n    tag_146:\n        /* \"#utility.yul\":4165:4190   */\n      swap2\n      pop\n        /* \"#utility.yul\":4204:4224   */\n      tag_147\n        /* \"#utility.yul\":4222:4223   */\n      dup4\n        /* \"#utility.yul\":4204:4224   */\n      tag_117\n      jump\t// in\n    tag_147:\n        /* \"#utility.yul\":4199:4224   */\n      swap3\n      pop\n        /* \"#utility.yul\":4243:4244   */\n      dup3\n        /* \"#utility.yul\":4240:4241   */\n      dup3\n        /* \"#utility.yul\":4237:4245   */\n      lt\n        /* \"#utility.yul\":4234:4236   */\n      iszero\n      tag_148\n      jumpi\n        /* \"#utility.yul\":4248:4266   */\n      tag_149\n      tag_133\n      jump\t// in\n    tag_149:\n        /* \"#utility.yul\":4234:4236   */\n    tag_148:\n        /* \"#utility.yul\":4293:4294   */\n      dup3\n        /* \"#utility.yul\":4290:4291   */\n      dup3\n        /* \"#utility.yul\":4286:4295   */\n      sub\n        /* \"#utility.yul\":4278:4295   */\n      swap1\n      pop\n        /* \"#utility.yul\":4155:4301   */\n      swap3\n      swap2\n      pop\n      pop\n      jump\t// out\n        /* \"#utility.yul\":4307:4403   */\n    tag_100:\n      0x00\n        /* \"#utility.yul\":4373:4397   */\n      tag_151\n        /* \"#utility.yul\":4391:4396   */\n      dup3\n        /* \"#utility.yul\":4373:4397   */\n      tag_152\n      jump\t// in\n    tag_151:\n        /* \"#utility.yul\":4362:4397   */\n      swap1\n      pop\n        /* \"#utility.yul\":4352:4403   */\n      swap2\n      swap1\n      pop\n      jump\t// out\n        /* \"#utility.yul\":4409:4535   */\n    tag_152:\n      0x00\n        /* \"#utility.yul\":4486:4528   */\n      0xffffffffffffffffffffffffffffffffffffffff\n        /* \"#utility.yul\":4479:4484   */\n      dup3\n        /* \"#utility.yul\":4475:4529   */\n      and\n        /* \"#utility.yul\":4464:4529   */\n      swap1\n      pop\n        /* \"#utility.yul\":4454:4535   */\n      swap2\n      swap1\n      pop\n      jump\t// out\n        /* \"#utility.yul\":4541:4618   */\n    tag_117:\n      0x00\n        /* \"#utility.yul\":4607:4612   */\n      dup2\n        /* \"#utility.yul\":4596:4612   */\n      swap1\n      pop\n        /* \"#utility.yul\":4586:4618   */\n      swap2\n      swap1\n      pop\n      jump\t// out\n        /* \"#utility.yul\":4624:4931   */\n    tag_108:\n        /* \"#utility.yul\":4692:4693   */\n      0x00\n        /* \"#utility.yul\":4702:4815   */\n    tag_156:\n        /* \"#utility.yul\":4716:4722   */\n      dup4\n        /* \"#utility.yul\":4713:4714   */\n      dup2\n        /* \"#utility.yul\":4710:4723   */\n      lt\n        /* \"#utility.yul\":4702:4815   */\n      iszero\n      tag_158\n      jumpi\n        /* \"#utility.yul\":4801:4802   */\n      dup1\n        /* \"#utility.yul\":4796:4799   */\n      dup3\n        /* \"#utility.yul\":4792:4803   */\n      add\n        /* \"#utility.yul\":4786:4804   */\n      mload\n        /* \"#utility.yul\":4782:4783   */\n      dup2\n        /* \"#utility.yul\":4777:4780   */\n      dup5\n        /* \"#utility.yul\":4773:4784   */\n      add\n        /* \"#utility.yul\":4766:4805   */\n      mstore\n        /* \"#utility.yul\":4738:4740   */\n      0x20\n        /* \"#utility.yul\":4735:4736   */\n      dup2\n        /* \"#utility.yul\":4731:4741   */\n      add\n        /* \"#utility.yul\":4726:4741   */\n      swap1\n      pop\n        /* \"#utility.yul\":4702:4815   */\n      jump(tag_156)\n    tag_158:\n        /* \"#utility.yul\":4833:4839   */\n      dup4\n        /* \"#utility.yul\":4830:4831   */\n      dup2\n        /* \"#utility.yul\":4827:4840   */\n      gt\n        /* \"#utility.yul\":4824:4826   */\n      iszero\n      tag_159\n      jumpi\n        /* \"#utility.yul\":4913:4914   */\n      0x00\n        /* \"#utility.yul\":4904:4910   */\n      dup5\n        /* \"#utility.yul\":4899:4902   */\n      dup5\n        /* \"#utility.yul\":4895:4911   */\n      add\n        /* \"#utility.yul\":4888:4915   */\n      mstore\n        /* \"#utility.yul\":4824:4826   */\n    tag_159:\n        /* \"#utility.yul\":4673:4931   */\n      pop\n      pop\n      pop\n      pop\n      jump\t// out\n        /* \"#utility.yul\":4937:5117   */\n    tag_133:\n        /* \"#utility.yul\":4985:5062   */\n      0x4e487b7100000000000000000000000000000000000000000000000000000000\n        /* \"#utility.yul\":4982:4983   */\n      0x00\n        /* \"#utility.yul\":4975:5063   */\n      mstore\n        /* \"#utility.yul\":5082:5086   */\n      0x11\n        /* \"#utility.yul\":5079:5080   */\n      0x04\n        /* \"#utility.yul\":5072:5087   */\n      mstore\n        /* \"#utility.yul\":5106:5110   */\n      0x24\n        /* \"#utility.yul\":5103:5104   */\n      0x00\n        /* \"#utility.yul\":5096:5111   */\n      revert\n        /* \"#utility.yul\":5123:5303   */\n    tag_139:\n        /* \"#utility.yul\":5171:5248   */\n      0x4e487b7100000000000000000000000000000000000000000000000000000000\n        /* \"#utility.yul\":5168:5169   */\n      0x00\n        /* \"#utility.yul\":5161:5249   */\n      mstore\n        /* \"#utility.yul\":5268:5272   */\n      0x12\n        /* \"#utility.yul\":5265:5266   */\n      0x04\n        /* \"#utility.yul\":5258:5273   */\n      mstore\n        /* \"#utility.yul\":5292:5296   */\n      0x24\n        /* \"#utility.yul\":5289:5290   */\n      0x00\n        /* \"#utility.yul\":5282:5297   */\n      revert\n        /* \"#utility.yul\":5309:5411   */\n    tag_110:\n      0x00\n        /* \"#utility.yul\":5401:5403   */\n      0x1f\n        /* \"#utility.yul\":5397:5404   */\n      not\n        /* \"#utility.yul\":5392:5394   */\n      0x1f\n        /* \"#utility.yul\":5385:5390   */\n      dup4\n        /* \"#utility.yul\":5381:5395   */\n      add\n        /* \"#utility.yul\":5377:5405   */\n      and\n        /* \"#utility.yul\":5367:5405   */\n      swap1\n      pop\n        /* \"#utility.yul\":5357:5411   */\n      swap2\n      swap1\n      pop\n      jump\t// out\n        /* \"#utility.yul\":5417:5539   */\n    tag_86:\n        /* \"#utility.yul\":5490:5514   */\n      tag_164\n        /* \"#utility.yul\":5508:5513   */\n      dup2\n        /* \"#utility.yul\":5490:5514   */\n      tag_100\n      jump\t// in\n    tag_164:\n        /* \"#utility.yul\":5483:5488   */\n      dup2\n        /* \"#utility.yul\":5480:5515   */\n      eq\n        /* \"#utility.yul\":5470:5472   */\n      tag_165\n      jumpi\n        /* \"#utility.yul\":5529:5530   */\n      0x00\n        /* \"#utility.yul\":5526:5527   */\n      dup1\n        /* \"#utility.yul\":5519:5531   */\n      revert\n        /* \"#utility.yul\":5470:5472   */\n    tag_165:\n        /* \"#utility.yul\":5460:5539   */\n      pop\n      jump\t// out\n        /* \"#utility.yul\":5545:5667   */\n    tag_90:\n        /* \"#utility.yul\":5618:5642   */\n      tag_167\n        /* \"#utility.yul\":5636:5641   */\n      dup2\n        /* \"#utility.yul\":5618:5642   */\n      tag_117\n      jump\t// in\n    tag_167:\n        /* \"#utility.yul\":5611:5616   */\n      dup2\n        /* \"#utility.yul\":5608:5643   */\n      eq\n        /* \"#utility.yul\":5598:5600   */\n      tag_168\n      jumpi\n        /* \"#utility.yul\":5657:5658   */\n      0x00\n        /* \"#utility.yul\":5654:5655   */\n      dup1\n        /* \"#utility.yul\":5647:5659   */\n      revert\n        /* \"#utility.yul\":5598:5600   */\n    tag_168:\n        /* \"#utility.yul\":5588:5667   */\n      pop\n      jump\t// out\n\n    auxdata: 0xa2646970667358221220c38b01408ba444ea190ae55e80d62825b25457fae468fa2cb146cceaa7004eee64736f6c63430008000033\n}\n","bytecode":{"linkReferences":{},"object":"608060405261012c60015534801561001657600080fd5b50336000806101000a81548173ffffffffffffffffffffffffffffffffffffffff021916908373ffffffffffffffffffffffffffffffffffffffff16021790555060008054906101000a900473ffffffffffffffffffffffffffffffffffffffff1673ffffffffffffffffffffffffffffffffffffffff16600073ffffffffffffffffffffffffffffffffffffffff167f342827c97908e5e2f71151c08502a66d44b6f758e3ac2f1de95f02eb95f0a73560405160405180910390a36109d0806100e16000396000f3fe6080604052600436106100555760003560e01c80631d32c5ca1461005a5780633e3518e914610085578063893d20e8146100a1578063a118c2af146100cc578063a6f9dae114610109578063c5ac0ded14610132575b600080fd5b34801561006657600080fd5b5061006f61015d565b60405161007c9190610700565b60405180910390f35b61009f600480360381019061009a91906105fc565b61019a565b005b3480156100ad57600080fd5b506100b66102be565b6040516100c391906106e5565b60405180910390f35b3480156100d857600080fd5b506100f360048036038101906100ee9190610625565b6102e7565b6040516101009190610742565b60405180910390f35b34801561011557600080fd5b50610130600480360381019061012b91906105fc565b61031d565b005b34801561013e57600080fd5b50610147610468565b6040516101549190610742565b60405180910390f35b60606040518060400160405280600781526020017f776f726b696e6700000000000000000000000000000000000000000000000000815250905090565b60006101a5346102e7565b905060008054906101000a900473ffffffffffffffffffffffffffffffffffffffff1673ffffffffffffffffffffffffffffffffffffffff166108fc829081150290604051600060405180830381858888f1935050505015801561020d573d6000803e3d6000fd5b508173ffffffffffffffffffffffffffffffffffffffff166108fc8234610234919061085a565b9081150290604051600060405180830381858888f1935050505015801561025f573d6000803e3d6000fd5b503373ffffffffffffffffffffffffffffffffffffffff168273ffffffffffffffffffffffffffffffffffffffff167f8be0079c531659141344cd1fd0a4f28419497f9722a3daafe3b4186f6b6457e060405160405180910390a35050565b60008060009054906101000a900473ffffffffffffffffffffffffffffffffffffffff16905090565b6000806102f68360015461046e565b90506000610311610309836001546104a9565b612710610518565b90508092505050919050565b60008054906101000a900473ffffffffffffffffffffffffffffffffffffffff1673ffffffffffffffffffffffffffffffffffffffff163373ffffffffffffffffffffffffffffffffffffffff16146103ab576040517f08c379a00000000000000000000000000000000000000000000000000000000081526004016103a290610722565b60405180910390fd5b8073ffffffffffffffffffffffffffffffffffffffff1660008054906101000a900473ffffffffffffffffffffffffffffffffffffffff1673ffffffffffffffffffffffffffffffffffffffff167f342827c97908e5e2f71151c08502a66d44b6f758e3ac2f1de95f02eb95f0a73560405160405180910390a3806000806101000a81548173ffffffffffffffffffffffffffffffffffffffff021916908373ffffffffffffffffffffffffffffffffffffffff16021790555050565b60015481565b60008061047b8484610533565b9050600061048a826001610585565b905061049f6104998286610518565b856104a9565b9250505092915050565b6000808314156104bc5760009050610512565b600082846104ca9190610800565b90508284826104d991906107cf565b1461050d577f4e487b7100000000000000000000000000000000000000000000000000000000600052600160045260246000fd5b809150505b92915050565b600080828461052791906107cf565b90508091505092915050565b60008082846105429190610779565b90508381101561057b577f4e487b7100000000000000000000000000000000000000000000000000000000600052600160045260246000fd5b8091505092915050565b6000828211156105be577f4e487b7100000000000000000000000000000000000000000000000000000000600052600160045260246000fd5b81836105ca919061085a565b905092915050565b6000813590506105e18161096c565b92915050565b6000813590506105f681610983565b92915050565b60006020828403121561060e57600080fd5b600061061c848285016105d2565b91505092915050565b60006020828403121561063757600080fd5b6000610645848285016105e7565b91505092915050565b6106578161088e565b82525050565b60006106688261075d565b6106728185610768565b93506106828185602086016108ca565b61068b8161095b565b840191505092915050565b60006106a3601383610768565b91507f43616c6c6572206973206e6f74206f776e6572000000000000000000000000006000830152602082019050919050565b6106df816108c0565b82525050565b60006020820190506106fa600083018461064e565b92915050565b6000602082019050818103600083015261071a818461065d565b905092915050565b6000602082019050818103600083015261073b81610696565b9050919050565b600060208201905061075760008301846106d6565b92915050565b600081519050919050565b600082825260208201905092915050565b6000610784826108c0565b915061078f836108c0565b9250827fffffffffffffffffffffffffffffffffffffffffffffffffffffffffffffffff038211156107c4576107c36108fd565b5b828201905092915050565b60006107da826108c0565b91506107e5836108c0565b9250826107f5576107f461092c565b5b828204905092915050565b600061080b826108c0565b9150610816836108c0565b9250817fffffffffffffffffffffffffffffffffffffffffffffffffffffffffffffffff048311821515161561084f5761084e6108fd565b5b828202905092915050565b6000610865826108c0565b9150610870836108c0565b925082821015610883576108826108fd565b5b828203905092915050565b6000610899826108a0565b9050919050565b600073ffffffffffffffffffffffffffffffffffffffff82169050919050565b6000819050919050565b60005b838110156108e85780820151818401526020810190506108cd565b838111156108f7576000848401525b50505050565b7f4e487b7100000000000000000000000000000000000000000000000000000000600052601160045260246000fd5b7f4e487b7100000000000000000000000000000000000000000000000000000000600052601260045260246000fd5b6000601f19601f8301169050919050565b6109758161088e565b811461098057600080fd5b50565b61098c816108c0565b811461099757600080fd5b5056fea2646970667358221220c38b01408ba444ea190ae55e80d62825b25457fae468fa2cb146cceaa7004eee64736f6c63430008000033","opcodes":"PUSH1 0x80 PUSH1 0x40 MSTORE PUSH2 0x12C PUSH1 0x1 SSTORE CALLVALUE DUP1 ISZERO PUSH2 0x16 JUMPI PUSH1 0x0 DUP1 REVERT JUMPDEST POP CALLER PUSH1 0x0 DUP1 PUSH2 0x100 EXP DUP2 SLOAD DUP2 PUSH20 0xFFFFFFFFFFFFFFFFFFFFFFFFFFFFFFFFFFFFFFFF MUL NOT AND SWAP1 DUP4 PUSH20 0xFFFFFFFFFFFFFFFFFFFFFFFFFFFFFFFFFFFFFFFF AND MUL OR SWAP1 SSTORE POP PUSH1 0x0 DUP1 SLOAD SWAP1 PUSH2 0x100 EXP SWAP1 DIV PUSH20 0xFFFFFFFFFFFFFFFFFFFFFFFFFFFFFFFFFFFFFFFF AND PUSH20 0xFFFFFFFFFFFFFFFFFFFFFFFFFFFFFFFFFFFFFFFF AND PUSH1 0x0 PUSH20 0xFFFFFFFFFFFFFFFFFFFFFFFFFFFFFFFFFFFFFFFF AND PUSH32 0x342827C97908E5E2F71151C08502A66D44B6F758E3AC2F1DE95F02EB95F0A735 PUSH1 0x40 MLOAD PUSH1 0x40 MLOAD DUP1 SWAP2 SUB SWAP1 LOG3 PUSH2 0x9D0 DUP1 PUSH2 0xE1 PUSH1 0x0 CODECOPY PUSH1 0x0 RETURN INVALID PUSH1 0x80 PUSH1 0x40 MSTORE PUSH1 0x4 CALLDATASIZE LT PUSH2 0x55 JUMPI PUSH1 0x0 CALLDATALOAD PUSH1 0xE0 SHR DUP1 PUSH4 0x1D32C5CA EQ PUSH2 0x5A JUMPI DUP1 PUSH4 0x3E3518E9 EQ PUSH2 0x85 JUMPI DUP1 PUSH4 0x893D20E8 EQ PUSH2 0xA1 JUMPI DUP1 PUSH4 0xA118C2AF EQ PUSH2 0xCC JUMPI DUP1 PUSH4 0xA6F9DAE1 EQ PUSH2 0x109 JUMPI DUP1 PUSH4 0xC5AC0DED EQ PUSH2 0x132 JUMPI JUMPDEST PUSH1 0x0 DUP1 REVERT JUMPDEST CALLVALUE DUP1 ISZERO PUSH2 0x66 JUMPI PUSH1 0x0 DUP1 REVERT JUMPDEST POP PUSH2 0x6F PUSH2 0x15D JUMP JUMPDEST PUSH1 0x40 MLOAD PUSH2 0x7C SWAP2 SWAP1 PUSH2 0x700 JUMP JUMPDEST PUSH1 0x40 MLOAD DUP1 SWAP2 SUB SWAP1 RETURN JUMPDEST PUSH2 0x9F PUSH1 0x4 DUP1 CALLDATASIZE SUB DUP2 ADD SWAP1 PUSH2 0x9A SWAP2 SWAP1 PUSH2 0x5FC JUMP JUMPDEST PUSH2 0x19A JUMP JUMPDEST STOP JUMPDEST CALLVALUE DUP1 ISZERO PUSH2 0xAD JUMPI PUSH1 0x0 DUP1 REVERT JUMPDEST POP PUSH2 0xB6 PUSH2 0x2BE JUMP JUMPDEST PUSH1 0x40 MLOAD PUSH2 0xC3 SWAP2 SWAP1 PUSH2 0x6E5 JUMP JUMPDEST PUSH1 0x40 MLOAD DUP1 SWAP2 SUB SWAP1 RETURN JUMPDEST CALLVALUE DUP1 ISZERO PUSH2 0xD8 JUMPI PUSH1 0x0 DUP1 REVERT JUMPDEST POP PUSH2 0xF3 PUSH1 0x4 DUP1 CALLDATASIZE SUB DUP2 ADD SWAP1 PUSH2 0xEE SWAP2 SWAP1 PUSH2 0x625 JUMP JUMPDEST PUSH2 0x2E7 JUMP JUMPDEST PUSH1 0x40 MLOAD PUSH2 0x100 SWAP2 SWAP1 PUSH2 0x742 JUMP JUMPDEST PUSH1 0x40 MLOAD DUP1 SWAP2 SUB SWAP1 RETURN JUMPDEST CALLVALUE DUP1 ISZERO PUSH2 0x115 JUMPI PUSH1 0x0 DUP1 REVERT JUMPDEST POP PUSH2 0x130 PUSH1 0x4 DUP1 CALLDATASIZE SUB DUP2 ADD SWAP1 PUSH2 0x12B SWAP2 SWAP1 PUSH2 0x5FC JUMP JUMPDEST PUSH2 0x31D JUMP JUMPDEST STOP JUMPDEST CALLVALUE DUP1 ISZERO PUSH2 0x13E JUMPI PUSH1 0x0 DUP1 REVERT JUMPDEST POP PUSH2 0x147 PUSH2 0x468 JUMP JUMPDEST PUSH1 0x40 MLOAD PUSH2 0x154 SWAP2 SWAP1 PUSH2 0x742 JUMP JUMPDEST PUSH1 0x40 MLOAD DUP1 SWAP2 SUB SWAP1 RETURN JUMPDEST PUSH1 0x60 PUSH1 0x40 MLOAD DUP1 PUSH1 0x40 ADD PUSH1 0x40 MSTORE DUP1 PUSH1 0x7 DUP2 MSTORE PUSH1 0x20 ADD PUSH32 0x776F726B696E6700000000000000000000000000000000000000000000000000 DUP2 MSTORE POP SWAP1 POP SWAP1 JUMP JUMPDEST PUSH1 0x0 PUSH2 0x1A5 CALLVALUE PUSH2 0x2E7 JUMP JUMPDEST SWAP1 POP PUSH1 0x0 DUP1 SLOAD SWAP1 PUSH2 0x100 EXP SWAP1 DIV PUSH20 0xFFFFFFFFFFFFFFFFFFFFFFFFFFFFFFFFFFFFFFFF AND PUSH20 0xFFFFFFFFFFFFFFFFFFFFFFFFFFFFFFFFFFFFFFFF AND PUSH2 0x8FC DUP3 SWAP1 DUP2 ISZERO MUL SWAP1 PUSH1 0x40 MLOAD PUSH1 0x0 PUSH1 0x40 MLOAD DUP1 DUP4 SUB DUP2 DUP6 DUP9 DUP9 CALL SWAP4 POP POP POP POP ISZERO DUP1 ISZERO PUSH2 0x20D JUMPI RETURNDATASIZE PUSH1 0x0 DUP1 RETURNDATACOPY RETURNDATASIZE PUSH1 0x0 REVERT JUMPDEST POP DUP2 PUSH20 0xFFFFFFFFFFFFFFFFFFFFFFFFFFFFFFFFFFFFFFFF AND PUSH2 0x8FC DUP3 CALLVALUE PUSH2 0x234 SWAP2 SWAP1 PUSH2 0x85A JUMP JUMPDEST SWAP1 DUP2 ISZERO MUL SWAP1 PUSH1 0x40 MLOAD PUSH1 0x0 PUSH1 0x40 MLOAD DUP1 DUP4 SUB DUP2 DUP6 DUP9 DUP9 CALL SWAP4 POP POP POP POP ISZERO DUP1 ISZERO PUSH2 0x25F JUMPI RETURNDATASIZE PUSH1 0x0 DUP1 RETURNDATACOPY RETURNDATASIZE PUSH1 0x0 REVERT JUMPDEST POP CALLER PUSH20 0xFFFFFFFFFFFFFFFFFFFFFFFFFFFFFFFFFFFFFFFF AND DUP3 PUSH20 0xFFFFFFFFFFFFFFFFFFFFFFFFFFFFFFFFFFFFFFFF AND PUSH32 0x8BE0079C531659141344CD1FD0A4F28419497F9722A3DAAFE3B4186F6B6457E0 PUSH1 0x40 MLOAD PUSH1 0x40 MLOAD DUP1 SWAP2 SUB SWAP1 LOG3 POP POP JUMP JUMPDEST PUSH1 0x0 DUP1 PUSH1 0x0 SWAP1 SLOAD SWAP1 PUSH2 0x100 EXP SWAP1 DIV PUSH20 0xFFFFFFFFFFFFFFFFFFFFFFFFFFFFFFFFFFFFFFFF AND SWAP1 POP SWAP1 JUMP JUMPDEST PUSH1 0x0 DUP1 PUSH2 0x2F6 DUP4 PUSH1 0x1 SLOAD PUSH2 0x46E JUMP JUMPDEST SWAP1 POP PUSH1 0x0 PUSH2 0x311 PUSH2 0x309 DUP4 PUSH1 0x1 SLOAD PUSH2 0x4A9 JUMP JUMPDEST PUSH2 0x2710 PUSH2 0x518 JUMP JUMPDEST SWAP1 POP DUP1 SWAP3 POP POP POP SWAP2 SWAP1 POP JUMP JUMPDEST PUSH1 0x0 DUP1 SLOAD SWAP1 PUSH2 0x100 EXP SWAP1 DIV PUSH20 0xFFFFFFFFFFFFFFFFFFFFFFFFFFFFFFFFFFFFFFFF AND PUSH20 0xFFFFFFFFFFFFFFFFFFFFFFFFFFFFFFFFFFFFFFFF AND CALLER PUSH20 0xFFFFFFFFFFFFFFFFFFFFFFFFFFFFFFFFFFFFFFFF AND EQ PUSH2 0x3AB JUMPI PUSH1 0x40 MLOAD PUSH32 0x8C379A000000000000000000000000000000000000000000000000000000000 DUP2 MSTORE PUSH1 0x4 ADD PUSH2 0x3A2 SWAP1 PUSH2 0x722 JUMP JUMPDEST PUSH1 0x40 MLOAD DUP1 SWAP2 SUB SWAP1 REVERT JUMPDEST DUP1 PUSH20 0xFFFFFFFFFFFFFFFFFFFFFFFFFFFFFFFFFFFFFFFF AND PUSH1 0x0 DUP1 SLOAD SWAP1 PUSH2 0x100 EXP SWAP1 DIV PUSH20 0xFFFFFFFFFFFFFFFFFFFFFFFFFFFFFFFFFFFFFFFF AND PUSH20 0xFFFFFFFFFFFFFFFFFFFFFFFFFFFFFFFFFFFFFFFF AND PUSH32 0x342827C97908E5E2F71151C08502A66D44B6F758E3AC2F1DE95F02EB95F0A735 PUSH1 0x40 MLOAD PUSH1 0x40 MLOAD DUP1 SWAP2 SUB SWAP1 LOG3 DUP1 PUSH1 0x0 DUP1 PUSH2 0x100 EXP DUP2 SLOAD DUP2 PUSH20 0xFFFFFFFFFFFFFFFFFFFFFFFFFFFFFFFFFFFFFFFF MUL NOT AND SWAP1 DUP4 PUSH20 0xFFFFFFFFFFFFFFFFFFFFFFFFFFFFFFFFFFFFFFFF AND MUL OR SWAP1 SSTORE POP POP JUMP JUMPDEST PUSH1 0x1 SLOAD DUP2 JUMP JUMPDEST PUSH1 0x0 DUP1 PUSH2 0x47B DUP5 DUP5 PUSH2 0x533 JUMP JUMPDEST SWAP1 POP PUSH1 0x0 PUSH2 0x48A DUP3 PUSH1 0x1 PUSH2 0x585 JUMP JUMPDEST SWAP1 POP PUSH2 0x49F PUSH2 0x499 DUP3 DUP7 PUSH2 0x518 JUMP JUMPDEST DUP6 PUSH2 0x4A9 JUMP JUMPDEST SWAP3 POP POP POP SWAP3 SWAP2 POP POP JUMP JUMPDEST PUSH1 0x0 DUP1 DUP4 EQ ISZERO PUSH2 0x4BC JUMPI PUSH1 0x0 SWAP1 POP PUSH2 0x512 JUMP JUMPDEST PUSH1 0x0 DUP3 DUP5 PUSH2 0x4CA SWAP2 SWAP1 PUSH2 0x800 JUMP JUMPDEST SWAP1 POP DUP3 DUP5 DUP3 PUSH2 0x4D9 SWAP2 SWAP1 PUSH2 0x7CF JUMP JUMPDEST EQ PUSH2 0x50D JUMPI PUSH32 0x4E487B7100000000000000000000000000000000000000000000000000000000 PUSH1 0x0 MSTORE PUSH1 0x1 PUSH1 0x4 MSTORE PUSH1 0x24 PUSH1 0x0 REVERT JUMPDEST DUP1 SWAP2 POP POP JUMPDEST SWAP3 SWAP2 POP POP JUMP JUMPDEST PUSH1 0x0 DUP1 DUP3 DUP5 PUSH2 0x527 SWAP2 SWAP1 PUSH2 0x7CF JUMP JUMPDEST SWAP1 POP DUP1 SWAP2 POP POP SWAP3 SWAP2 POP POP JUMP JUMPDEST PUSH1 0x0 DUP1 DUP3 DUP5 PUSH2 0x542 SWAP2 SWAP1 PUSH2 0x779 JUMP JUMPDEST SWAP1 POP DUP4 DUP2 LT ISZERO PUSH2 0x57B JUMPI PUSH32 0x4E487B7100000000000000000000000000000000000000000000000000000000 PUSH1 0x0 MSTORE PUSH1 0x1 PUSH1 0x4 MSTORE PUSH1 0x24 PUSH1 0x0 REVERT JUMPDEST DUP1 SWAP2 POP POP SWAP3 SWAP2 POP POP JUMP JUMPDEST PUSH1 0x0 DUP3 DUP3 GT ISZERO PUSH2 0x5BE JUMPI PUSH32 0x4E487B7100000000000000000000000000000000000000000000000000000000 PUSH1 0x0 MSTORE PUSH1 0x1 PUSH1 0x4 MSTORE PUSH1 0x24 PUSH1 0x0 REVERT JUMPDEST DUP2 DUP4 PUSH2 0x5CA SWAP2 SWAP1 PUSH2 0x85A JUMP JUMPDEST SWAP1 POP SWAP3 SWAP2 POP POP JUMP JUMPDEST PUSH1 0x0 DUP2 CALLDATALOAD SWAP1 POP PUSH2 0x5E1 DUP2 PUSH2 0x96C JUMP JUMPDEST SWAP3 SWAP2 POP POP JUMP JUMPDEST PUSH1 0x0 DUP2 CALLDATALOAD SWAP1 POP PUSH2 0x5F6 DUP2 PUSH2 0x983 JUMP JUMPDEST SWAP3 SWAP2 POP POP JUMP JUMPDEST PUSH1 0x0 PUSH1 0x20 DUP3 DUP5 SUB SLT ISZERO PUSH2 0x60E JUMPI PUSH1 0x0 DUP1 REVERT JUMPDEST PUSH1 0x0 PUSH2 0x61C DUP5 DUP3 DUP6 ADD PUSH2 0x5D2 JUMP JUMPDEST SWAP2 POP POP SWAP3 SWAP2 POP POP JUMP JUMPDEST PUSH1 0x0 PUSH1 0x20 DUP3 DUP5 SUB SLT ISZERO PUSH2 0x637 JUMPI PUSH1 0x0 DUP1 REVERT JUMPDEST PUSH1 0x0 PUSH2 0x645 DUP5 DUP3 DUP6 ADD PUSH2 0x5E7 JUMP JUMPDEST SWAP2 POP POP SWAP3 SWAP2 POP POP JUMP JUMPDEST PUSH2 0x657 DUP2 PUSH2 0x88E JUMP JUMPDEST DUP3 MSTORE POP POP JUMP JUMPDEST PUSH1 0x0 PUSH2 0x668 DUP3 PUSH2 0x75D JUMP JUMPDEST PUSH2 0x672 DUP2 DUP6 PUSH2 0x768 JUMP JUMPDEST SWAP4 POP PUSH2 0x682 DUP2 DUP6 PUSH1 0x20 DUP7 ADD PUSH2 0x8CA JUMP JUMPDEST PUSH2 0x68B DUP2 PUSH2 0x95B JUMP JUMPDEST DUP5 ADD SWAP2 POP POP SWAP3 SWAP2 POP POP JUMP JUMPDEST PUSH1 0x0 PUSH2 0x6A3 PUSH1 0x13 DUP4 PUSH2 0x768 JUMP JUMPDEST SWAP2 POP PUSH32 0x43616C6C6572206973206E6F74206F776E657200000000000000000000000000 PUSH1 0x0 DUP4 ADD MSTORE PUSH1 0x20 DUP3 ADD SWAP1 POP SWAP2 SWAP1 POP JUMP JUMPDEST PUSH2 0x6DF DUP2 PUSH2 0x8C0 JUMP JUMPDEST DUP3 MSTORE POP POP JUMP JUMPDEST PUSH1 0x0 PUSH1 0x20 DUP3 ADD SWAP1 POP PUSH2 0x6FA PUSH1 0x0 DUP4 ADD DUP5 PUSH2 0x64E JUMP JUMPDEST SWAP3 SWAP2 POP POP JUMP JUMPDEST PUSH1 0x0 PUSH1 0x20 DUP3 ADD SWAP1 POP DUP2 DUP2 SUB PUSH1 0x0 DUP4 ADD MSTORE PUSH2 0x71A DUP2 DUP5 PUSH2 0x65D JUMP JUMPDEST SWAP1 POP SWAP3 SWAP2 POP POP JUMP JUMPDEST PUSH1 0x0 PUSH1 0x20 DUP3 ADD SWAP1 POP DUP2 DUP2 SUB PUSH1 0x0 DUP4 ADD MSTORE PUSH2 0x73B DUP2 PUSH2 0x696 JUMP JUMPDEST SWAP1 POP SWAP2 SWAP1 POP JUMP JUMPDEST PUSH1 0x0 PUSH1 0x20 DUP3 ADD SWAP1 POP PUSH2 0x757 PUSH1 0x0 DUP4 ADD DUP5 PUSH2 0x6D6 JUMP JUMPDEST SWAP3 SWAP2 POP POP JUMP JUMPDEST PUSH1 0x0 DUP2 MLOAD SWAP1 POP SWAP2 SWAP1 POP JUMP JUMPDEST PUSH1 0x0 DUP3 DUP3 MSTORE PUSH1 0x20 DUP3 ADD SWAP1 POP SWAP3 SWAP2 POP POP JUMP JUMPDEST PUSH1 0x0 PUSH2 0x784 DUP3 PUSH2 0x8C0 JUMP JUMPDEST SWAP2 POP PUSH2 0x78F DUP4 PUSH2 0x8C0 JUMP JUMPDEST SWAP3 POP DUP3 PUSH32 0xFFFFFFFFFFFFFFFFFFFFFFFFFFFFFFFFFFFFFFFFFFFFFFFFFFFFFFFFFFFFFFFF SUB DUP3 GT ISZERO PUSH2 0x7C4 JUMPI PUSH2 0x7C3 PUSH2 0x8FD JUMP JUMPDEST JUMPDEST DUP3 DUP3 ADD SWAP1 POP SWAP3 SWAP2 POP POP JUMP JUMPDEST PUSH1 0x0 PUSH2 0x7DA DUP3 PUSH2 0x8C0 JUMP JUMPDEST SWAP2 POP PUSH2 0x7E5 DUP4 PUSH2 0x8C0 JUMP JUMPDEST SWAP3 POP DUP3 PUSH2 0x7F5 JUMPI PUSH2 0x7F4 PUSH2 0x92C JUMP JUMPDEST JUMPDEST DUP3 DUP3 DIV SWAP1 POP SWAP3 SWAP2 POP POP JUMP JUMPDEST PUSH1 0x0 PUSH2 0x80B DUP3 PUSH2 0x8C0 JUMP JUMPDEST SWAP2 POP PUSH2 0x816 DUP4 PUSH2 0x8C0 JUMP JUMPDEST SWAP3 POP DUP2 PUSH32 0xFFFFFFFFFFFFFFFFFFFFFFFFFFFFFFFFFFFFFFFFFFFFFFFFFFFFFFFFFFFFFFFF DIV DUP4 GT DUP3 ISZERO ISZERO AND ISZERO PUSH2 0x84F JUMPI PUSH2 0x84E PUSH2 0x8FD JUMP JUMPDEST JUMPDEST DUP3 DUP3 MUL SWAP1 POP SWAP3 SWAP2 POP POP JUMP JUMPDEST PUSH1 0x0 PUSH2 0x865 DUP3 PUSH2 0x8C0 JUMP JUMPDEST SWAP2 POP PUSH2 0x870 DUP4 PUSH2 0x8C0 JUMP JUMPDEST SWAP3 POP DUP3 DUP3 LT ISZERO PUSH2 0x883 JUMPI PUSH2 0x882 PUSH2 0x8FD JUMP JUMPDEST JUMPDEST DUP3 DUP3 SUB SWAP1 POP SWAP3 SWAP2 POP POP JUMP JUMPDEST PUSH1 0x0 PUSH2 0x899 DUP3 PUSH2 0x8A0 JUMP JUMPDEST SWAP1 POP SWAP2 SWAP1 POP JUMP JUMPDEST PUSH1 0x0 PUSH20 0xFFFFFFFFFFFFFFFFFFFFFFFFFFFFFFFFFFFFFFFF DUP3 AND SWAP1 POP SWAP2 SWAP1 POP JUMP JUMPDEST PUSH1 0x0 DUP2 SWAP1 POP SWAP2 SWAP1 POP JUMP JUMPDEST PUSH1 0x0 JUMPDEST DUP4 DUP2 LT ISZERO PUSH2 0x8E8 JUMPI DUP1 DUP3 ADD MLOAD DUP2 DUP5 ADD MSTORE PUSH1 0x20 DUP2 ADD SWAP1 POP PUSH2 0x8CD JUMP JUMPDEST DUP4 DUP2 GT ISZERO PUSH2 0x8F7 JUMPI PUSH1 0x0 DUP5 DUP5 ADD MSTORE JUMPDEST POP POP POP POP JUMP JUMPDEST PUSH32 0x4E487B7100000000000000000000000000000000000000000000000000000000 PUSH1 0x0 MSTORE PUSH1 0x11 PUSH1 0x4 MSTORE PUSH1 0x24 PUSH1 0x0 REVERT JUMPDEST PUSH32 0x4E487B7100000000000000000000000000000000000000000000000000000000 PUSH1 0x0 MSTORE PUSH1 0x12 PUSH1 0x4 MSTORE PUSH1 0x24 PUSH1 0x0 REVERT JUMPDEST PUSH1 0x0 PUSH1 0x1F NOT PUSH1 0x1F DUP4 ADD AND SWAP1 POP SWAP2 SWAP1 POP JUMP JUMPDEST PUSH2 0x975 DUP2 PUSH2 0x88E JUMP JUMPDEST DUP2 EQ PUSH2 0x980 JUMPI PUSH1 0x0 DUP1 REVERT JUMPDEST POP JUMP JUMPDEST PUSH2 0x98C DUP2 PUSH2 0x8C0 JUMP JUMPDEST DUP2 EQ PUSH2 0x997 JUMPI PUSH1 0x0 DUP1 REVERT JUMPDEST POP JUMP INVALID LOG2 PUSH5 0x6970667358 0x22 SLT KECCAK256 0xC3 DUP12 ADD BLOCKHASH DUP12 LOG4 DIFFICULTY 0xEA NOT EXP 0xE5 0x5E DUP1 0xD6 0x28 0x25 0xB2 SLOAD JUMPI STATICCALL 0xE4 PUSH9 0xFA2CB146CCEAA7004E 0xEE PUSH5 0x736F6C6343 STOP ADDMOD STOP STOP CALLER "},"gasEstimates":{"creation":{"codeDepositCost":"502400","executionCost":"43787","totalCost":"546187"},"external":{"basePercent()":"1217","changeOwner(address)":"24633","getOwner()":"1244","hederaPayable(address)":"infinite","hederaStringer()":"infinite","threePercent(uint256)":"infinite"}},"methodIdentifiers":{"basePercent()":"c5ac0ded","changeOwner(address)":"a6f9dae1","getOwner()":"893d20e8","hederaPayable(address)":"3e3518e9","hederaStringer()":"1d32c5ca","threePercent(uint256)":"a118c2af"}},"storageLayout":{"storage":[{"astId":5,"contract":"HederaSwap.sol:HederaSwap","label":"owner","offset":0,"slot":"0","type":"t_address"},{"astId":8,"contract":"HederaSwap.sol:HederaSwap","label":"basePercent","offset":0,"slot":"1","type":"t_uint256"}],"types":{"t_address":{"encoding":"inplace","label":"address","numberOfBytes":"20"},"t_uint256":{"encoding":"inplace","label":"uint256","numberOfBytes":"32"}}},"userdoc":{"kind":"user","methods":{},"version":1}}