{
  "abi": [
    {
      "inputs": [],
      "stateMutability": "nonpayable",
      "type": "constructor"
    },
    {
      "anonymous": false,
      "inputs": [
        {
          "indexed": true,
          "internalType": "address",
          "name": "oldOwner",
          "type": "address"
        },
        {
          "indexed": true,
          "internalType": "address",
          "name": "newOwner",
          "type": "address"
        }
      ],
      "name": "OwnerSet",
      "type": "event"
    },
    {
      "anonymous": false,
      "inputs": [
        {
          "indexed": true,
          "internalType": "address",
          "name": "previousOwner",
          "type": "address"
        },
        {
          "indexed": true,
          "internalType": "address",
          "name": "newOwner",
          "type": "address"
        }
      ],
      "name": "OwnershipTransferred",
      "type": "event"
    },
    {
      "inputs": [],
      "name": "basePercent",
      "outputs": [
        {
          "internalType": "uint256",
          "name": "",
          "type": "uint256"
        }
      ],
      "stateMutability": "view",
      "type": "function"
    },
    {
      "inputs": [
        {
          "internalType": "address",
          "name": "newOwner",
          "type": "address"
        }
      ],
      "name": "changeOwner",
      "outputs": [],
      "stateMutability": "nonpayable",
      "type": "function"
    },
    {
      "inputs": [],
      "name": "getOwner",
      "outputs": [
        {
          "internalType": "address",
          "name": "",
          "type": "address"
        }
      ],
      "stateMutability": "view",
      "type": "function"
    },
    {
      "inputs": [
        {
          "internalType": "address",
          "name": "_seller",
          "type": "address"
        }
      ],
      "name": "hederaPayable",
      "outputs": [],
      "stateMutability": "payable",
      "type": "function"
    },
    {
      "inputs": [
        {
          "internalType": "uint256",
          "name": "_value",
          "type": "uint256"
        }
      ],
      "name": "threePercent",
      "outputs": [
        {
          "internalType": "uint256",
          "name": "",
          "type": "uint256"
        }
      ],
      "stateMutability": "view",
      "type": "function"
    }
  ],
  "devdoc": {
    "details": "Set & change owner",
    "kind": "dev",
    "methods": {
      "changeOwner(address)": {
        "details": "Change owner",
        "params": {
          "newOwner": "address of new owner"
        }
      },
      "constructor": {
        "details": "Set contract deployer as owner"
      },
      "getOwner()": {
        "details": "Return owner address",
        "returns": {
          "_0": "address of owner"
        }
      }
    },
    "title": "Owner",
    "version": 1
  },
  "evm": {
    "assembly": "    /* \"HederaSwap.sol\":102:2175  contract HederaSwap {... */\n  mstore(0x40, 0x80)\n    /* \"HederaSwap.sol\":185:188  300 */\n  0x012c\n    /* \"HederaSwap.sol\":156:188  uint256 public basePercent = 300 */\n  0x01\n  sstore\n    /* \"HederaSwap.sol\":1024:1201  constructor() public {... */\n  callvalue\n  dup1\n  iszero\n  tag_1\n  jumpi\n  0x00\n  dup1\n  revert\ntag_1:\n  pop\n    /* \"HederaSwap.sol\":1063:1073  msg.sender */\n  caller\n    /* \"HederaSwap.sol\":1055:1060  owner */\n  0x00\n  dup1\n    /* \"HederaSwap.sol\":1055:1073  owner = msg.sender */\n  0x0100\n  exp\n  dup2\n  sload\n  dup2\n  0xffffffffffffffffffffffffffffffffffffffff\n  mul\n  not\n  and\n  swap1\n  dup4\n  0xffffffffffffffffffffffffffffffffffffffff\n  and\n  mul\n  or\n  swap1\n  sstore\n  pop\n    /* \"HederaSwap.sol\":1188:1193  owner */\n  0x00\n  dup1\n  sload\n  swap1\n  0x0100\n  exp\n  swap1\n  div\n  0xffffffffffffffffffffffffffffffffffffffff\n  and\n    /* \"HederaSwap.sol\":1167:1194  OwnerSet(address(0), owner) */\n  0xffffffffffffffffffffffffffffffffffffffff\n  and\n    /* \"HederaSwap.sol\":1184:1185  0 */\n  0x00\n    /* \"HederaSwap.sol\":1167:1194  OwnerSet(address(0), owner) */\n  0xffffffffffffffffffffffffffffffffffffffff\n  and\n  0x342827c97908e5e2f71151c08502a66d44b6f758e3ac2f1de95f02eb95f0a735\n  mload(0x40)\n  mload(0x40)\n  dup1\n  swap2\n  sub\n  swap1\n  log3\n    /* \"HederaSwap.sol\":102:2175  contract HederaSwap {... */\n  dataSize(sub_0)\n  dup1\n  dataOffset(sub_0)\n  0x00\n  codecopy\n  0x00\n  return\nstop\n\nsub_0: assembly {\n        /* \"HederaSwap.sol\":102:2175  contract HederaSwap {... */\n      mstore(0x40, 0x80)\n      jumpi(tag_1, lt(calldatasize, 0x04))\n      shr(0xe0, calldataload(0x00))\n      dup1\n      0x3e3518e9\n      eq\n      tag_2\n      jumpi\n      dup1\n      0x893d20e8\n      eq\n      tag_3\n      jumpi\n      dup1\n      0xa118c2af\n      eq\n      tag_4\n      jumpi\n      dup1\n      0xa6f9dae1\n      eq\n      tag_5\n      jumpi\n      dup1\n      0xc5ac0ded\n      eq\n      tag_6\n      jumpi\n    tag_1:\n      0x00\n      dup1\n      revert\n        /* \"HederaSwap.sol\":1207:1517  function hederaPayable(address _seller) public payable {... */\n    tag_2:\n      tag_7\n      0x04\n      dup1\n      calldatasize\n      sub\n      dup2\n      add\n      swap1\n      tag_8\n      swap2\n      swap1\n      tag_9\n      jump\t// in\n    tag_8:\n      tag_10\n      jump\t// in\n    tag_7:\n      stop\n        /* \"HederaSwap.sol\":2092:2173  function getOwner() external view returns (address) {... */\n    tag_3:\n      callvalue\n      dup1\n      iszero\n      tag_11\n      jumpi\n      0x00\n      dup1\n      revert\n    tag_11:\n      pop\n      tag_12\n      tag_13\n      jump\t// in\n    tag_12:\n      mload(0x40)\n      tag_14\n      swap2\n      swap1\n      tag_15\n      jump\t// in\n    tag_14:\n      mload(0x40)\n      dup1\n      swap2\n      sub\n      swap1\n      return\n        /* \"HederaSwap.sol\":1523:1787  function threePercent(uint256 _value) public view returns (uint256)  {... */\n    tag_4:\n      callvalue\n      dup1\n      iszero\n      tag_16\n      jumpi\n      0x00\n      dup1\n      revert\n    tag_16:\n      pop\n      tag_17\n      0x04\n      dup1\n      calldatasize\n      sub\n      dup2\n      add\n      swap1\n      tag_18\n      swap2\n      swap1\n      tag_19\n      jump\t// in\n    tag_18:\n      tag_20\n      jump\t// in\n    tag_17:\n      mload(0x40)\n      tag_21\n      swap2\n      swap1\n      tag_22\n      jump\t// in\n    tag_21:\n      mload(0x40)\n      dup1\n      swap2\n      sub\n      swap1\n      return\n        /* \"HederaSwap.sol\":1878:2005  function changeOwner(address newOwner) public isOwner {... */\n    tag_5:\n      callvalue\n      dup1\n      iszero\n      tag_23\n      jumpi\n      0x00\n      dup1\n      revert\n    tag_23:\n      pop\n      tag_24\n      0x04\n      dup1\n      calldatasize\n      sub\n      dup2\n      add\n      swap1\n      tag_25\n      swap2\n      swap1\n      tag_9\n      jump\t// in\n    tag_25:\n      tag_26\n      jump\t// in\n    tag_24:\n      stop\n        /* \"HederaSwap.sol\":156:188  uint256 public basePercent = 300 */\n    tag_6:\n      callvalue\n      dup1\n      iszero\n      tag_27\n      jumpi\n      0x00\n      dup1\n      revert\n    tag_27:\n      pop\n      tag_28\n      tag_29\n      jump\t// in\n    tag_28:\n      mload(0x40)\n      tag_30\n      swap2\n      swap1\n      tag_22\n      jump\t// in\n    tag_30:\n      mload(0x40)\n      dup1\n      swap2\n      sub\n      swap1\n      return\n        /* \"HederaSwap.sol\":1207:1517  function hederaPayable(address _seller) public payable {... */\n    tag_10:\n        /* \"HederaSwap.sol\":1332:1343  uint256 cut */\n      0x00\n        /* \"HederaSwap.sol\":1346:1369  threePercent(msg.value) */\n      tag_32\n        /* \"HederaSwap.sol\":1359:1368  msg.value */\n      callvalue\n        /* \"HederaSwap.sol\":1346:1358  threePercent */\n      tag_20\n        /* \"HederaSwap.sol\":1346:1369  threePercent(msg.value) */\n      jump\t// in\n    tag_32:\n        /* \"HederaSwap.sol\":1332:1369  uint256 cut = threePercent(msg.value) */\n      swap1\n      pop\n        /* \"HederaSwap.sol\":1386:1391  owner */\n      0x00\n      dup1\n      sload\n      swap1\n      0x0100\n      exp\n      swap1\n      div\n      0xffffffffffffffffffffffffffffffffffffffff\n      and\n        /* \"HederaSwap.sol\":1378:1401  payable(owner).transfer */\n      0xffffffffffffffffffffffffffffffffffffffff\n      and\n        /* \"HederaSwap.sol\":1378:1406  payable(owner).transfer(cut) */\n      0x08fc\n        /* \"HederaSwap.sol\":1402:1405  cut */\n      dup3\n        /* \"HederaSwap.sol\":1378:1406  payable(owner).transfer(cut) */\n      swap1\n      dup2\n      iszero\n      mul\n      swap1\n      mload(0x40)\n      0x00\n      mload(0x40)\n      dup1\n      dup4\n      sub\n      dup2\n      dup6\n      dup9\n      dup9\n      call\n      swap4\n      pop\n      pop\n      pop\n      pop\n      iszero\n      dup1\n      iszero\n      tag_34\n      jumpi\n      returndatasize\n      0x00\n      dup1\n      returndatacopy\n      revert(0x00, returndatasize)\n    tag_34:\n      pop\n        /* \"HederaSwap.sol\":1422:1429  _seller */\n      dup2\n        /* \"HederaSwap.sol\":1414:1439  payable(_seller).transfer */\n      0xffffffffffffffffffffffffffffffffffffffff\n      and\n        /* \"HederaSwap.sol\":1414:1456  payable(_seller).transfer(msg.value - cut) */\n      0x08fc\n        /* \"HederaSwap.sol\":1452:1455  cut */\n      dup3\n        /* \"HederaSwap.sol\":1440:1449  msg.value */\n      callvalue\n        /* \"HederaSwap.sol\":1440:1455  msg.value - cut */\n      tag_35\n      swap2\n      swap1\n      tag_36\n      jump\t// in\n    tag_35:\n        /* \"HederaSwap.sol\":1414:1456  payable(_seller).transfer(msg.value - cut) */\n      swap1\n      dup2\n      iszero\n      mul\n      swap1\n      mload(0x40)\n      0x00\n      mload(0x40)\n      dup1\n      dup4\n      sub\n      dup2\n      dup6\n      dup9\n      dup9\n      call\n      swap4\n      pop\n      pop\n      pop\n      pop\n      iszero\n      dup1\n      iszero\n      tag_38\n      jumpi\n      returndatasize\n      0x00\n      dup1\n      returndatacopy\n      revert(0x00, returndatasize)\n    tag_38:\n      pop\n        /* \"HederaSwap.sol\":1499:1509  msg.sender */\n      caller\n        /* \"HederaSwap.sol\":1469:1510  OwnershipTransferred(_seller, msg.sender) */\n      0xffffffffffffffffffffffffffffffffffffffff\n      and\n        /* \"HederaSwap.sol\":1490:1497  _seller */\n      dup3\n        /* \"HederaSwap.sol\":1469:1510  OwnershipTransferred(_seller, msg.sender) */\n      0xffffffffffffffffffffffffffffffffffffffff\n      and\n      0x8be0079c531659141344cd1fd0a4f28419497f9722a3daafe3b4186f6b6457e0\n      mload(0x40)\n      mload(0x40)\n      dup1\n      swap2\n      sub\n      swap1\n      log3\n        /* \"HederaSwap.sol\":1207:1517  function hederaPayable(address _seller) public payable {... */\n      pop\n      pop\n      jump\t// out\n        /* \"HederaSwap.sol\":2092:2173  function getOwner() external view returns (address) {... */\n    tag_13:\n        /* \"HederaSwap.sol\":2135:2142  address */\n      0x00\n        /* \"HederaSwap.sol\":2161:2166  owner */\n      dup1\n      0x00\n      swap1\n      sload\n      swap1\n      0x0100\n      exp\n      swap1\n      div\n      0xffffffffffffffffffffffffffffffffffffffff\n      and\n        /* \"HederaSwap.sol\":2154:2166  return owner */\n      swap1\n      pop\n        /* \"HederaSwap.sol\":2092:2173  function getOwner() external view returns (address) {... */\n      swap1\n      jump\t// out\n        /* \"HederaSwap.sol\":1523:1787  function threePercent(uint256 _value) public view returns (uint256)  {... */\n    tag_20:\n        /* \"HederaSwap.sol\":1582:1589  uint256 */\n      0x00\n        /* \"HederaSwap.sol\":1602:1620  uint256 roundValue */\n      dup1\n        /* \"HederaSwap.sol\":1623:1657  SafeMath.ceil(_value, basePercent) */\n      tag_41\n        /* \"HederaSwap.sol\":1637:1643  _value */\n      dup4\n        /* \"HederaSwap.sol\":1645:1656  basePercent */\n      sload(0x01)\n        /* \"HederaSwap.sol\":1623:1636  SafeMath.ceil */\n      tag_42\n        /* \"HederaSwap.sol\":1623:1657  SafeMath.ceil(_value, basePercent) */\n      jump\t// in\n    tag_41:\n        /* \"HederaSwap.sol\":1602:1657  uint256 roundValue = SafeMath.ceil(_value, basePercent) */\n      swap1\n      pop\n        /* \"HederaSwap.sol\":1668:1689  uint256 _threePercent */\n      0x00\n        /* \"HederaSwap.sol\":1692:1750  SafeMath.div(SafeMath.mul(roundValue, basePercent), 10000) */\n      tag_43\n        /* \"HederaSwap.sol\":1705:1742  SafeMath.mul(roundValue, basePercent) */\n      tag_44\n        /* \"HederaSwap.sol\":1718:1728  roundValue */\n      dup4\n        /* \"HederaSwap.sol\":1730:1741  basePercent */\n      sload(0x01)\n        /* \"HederaSwap.sol\":1705:1717  SafeMath.mul */\n      tag_45\n        /* \"HederaSwap.sol\":1705:1742  SafeMath.mul(roundValue, basePercent) */\n      jump\t// in\n    tag_44:\n        /* \"HederaSwap.sol\":1744:1749  10000 */\n      0x2710\n        /* \"HederaSwap.sol\":1692:1704  SafeMath.div */\n      tag_46\n        /* \"HederaSwap.sol\":1692:1750  SafeMath.div(SafeMath.mul(roundValue, basePercent), 10000) */\n      jump\t// in\n    tag_43:\n        /* \"HederaSwap.sol\":1668:1750  uint256 _threePercent = SafeMath.div(SafeMath.mul(roundValue, basePercent), 10000) */\n      swap1\n      pop\n        /* \"HederaSwap.sol\":1767:1780  _threePercent */\n      dup1\n        /* \"HederaSwap.sol\":1760:1780  return _threePercent */\n      swap3\n      pop\n      pop\n      pop\n        /* \"HederaSwap.sol\":1523:1787  function threePercent(uint256 _value) public view returns (uint256)  {... */\n      swap2\n      swap1\n      pop\n      jump\t// out\n        /* \"HederaSwap.sol\":1878:2005  function changeOwner(address newOwner) public isOwner {... */\n    tag_26:\n        /* \"HederaSwap.sol\":912:917  owner */\n      0x00\n      dup1\n      sload\n      swap1\n      0x0100\n      exp\n      swap1\n      div\n      0xffffffffffffffffffffffffffffffffffffffff\n      and\n        /* \"HederaSwap.sol\":898:917  msg.sender == owner */\n      0xffffffffffffffffffffffffffffffffffffffff\n      and\n        /* \"HederaSwap.sol\":898:908  msg.sender */\n      caller\n        /* \"HederaSwap.sol\":898:917  msg.sender == owner */\n      0xffffffffffffffffffffffffffffffffffffffff\n      and\n      eq\n        /* \"HederaSwap.sol\":890:941  require(msg.sender == owner, \"Caller is not owner\") */\n      tag_48\n      jumpi\n      mload(0x40)\n      0x08c379a000000000000000000000000000000000000000000000000000000000\n      dup2\n      mstore\n      0x04\n      add\n      tag_49\n      swap1\n      tag_50\n      jump\t// in\n    tag_49:\n      mload(0x40)\n      dup1\n      swap2\n      sub\n      swap1\n      revert\n    tag_48:\n        /* \"HederaSwap.sol\":1963:1971  newOwner */\n      dup1\n        /* \"HederaSwap.sol\":1947:1972  OwnerSet(owner, newOwner) */\n      0xffffffffffffffffffffffffffffffffffffffff\n      and\n        /* \"HederaSwap.sol\":1956:1961  owner */\n      0x00\n      dup1\n      sload\n      swap1\n      0x0100\n      exp\n      swap1\n      div\n      0xffffffffffffffffffffffffffffffffffffffff\n      and\n        /* \"HederaSwap.sol\":1947:1972  OwnerSet(owner, newOwner) */\n      0xffffffffffffffffffffffffffffffffffffffff\n      and\n      0x342827c97908e5e2f71151c08502a66d44b6f758e3ac2f1de95f02eb95f0a735\n      mload(0x40)\n      mload(0x40)\n      dup1\n      swap2\n      sub\n      swap1\n      log3\n        /* \"HederaSwap.sol\":1990:1998  newOwner */\n      dup1\n        /* \"HederaSwap.sol\":1982:1987  owner */\n      0x00\n      dup1\n        /* \"HederaSwap.sol\":1982:1998  owner = newOwner */\n      0x0100\n      exp\n      dup2\n      sload\n      dup2\n      0xffffffffffffffffffffffffffffffffffffffff\n      mul\n      not\n      and\n      swap1\n      dup4\n      0xffffffffffffffffffffffffffffffffffffffff\n      and\n      mul\n      or\n      swap1\n      sstore\n      pop\n        /* \"HederaSwap.sol\":1878:2005  function changeOwner(address newOwner) public isOwner {... */\n      pop\n      jump\t// out\n        /* \"HederaSwap.sol\":156:188  uint256 public basePercent = 300 */\n    tag_29:\n      sload(0x01)\n      dup2\n      jump\t// out\n        /* \"SafeMath.sol\":656:823   */\n    tag_42:\n        /* \"SafeMath.sol\":715:722   */\n      0x00\n        /* \"SafeMath.sol\":734:743   */\n      dup1\n        /* \"SafeMath.sol\":746:754   */\n      tag_53\n        /* \"SafeMath.sol\":750:751   */\n      dup5\n        /* \"SafeMath.sol\":752:753   */\n      dup5\n        /* \"SafeMath.sol\":746:749   */\n      tag_54\n        /* \"SafeMath.sol\":746:754   */\n      jump\t// in\n    tag_53:\n        /* \"SafeMath.sol\":734:754   */\n      swap1\n      pop\n        /* \"SafeMath.sol\":764:773   */\n      0x00\n        /* \"SafeMath.sol\":776:784   */\n      tag_55\n        /* \"SafeMath.sol\":780:781   */\n      dup3\n        /* \"SafeMath.sol\":782:783   */\n      0x01\n        /* \"SafeMath.sol\":776:779   */\n      tag_56\n        /* \"SafeMath.sol\":776:784   */\n      jump\t// in\n    tag_55:\n        /* \"SafeMath.sol\":764:784   */\n      swap1\n      pop\n        /* \"SafeMath.sol\":801:816   */\n      tag_57\n        /* \"SafeMath.sol\":805:813   */\n      tag_58\n        /* \"SafeMath.sol\":809:810   */\n      dup3\n        /* \"SafeMath.sol\":811:812   */\n      dup7\n        /* \"SafeMath.sol\":805:808   */\n      tag_46\n        /* \"SafeMath.sol\":805:813   */\n      jump\t// in\n    tag_58:\n        /* \"SafeMath.sol\":814:815   */\n      dup6\n        /* \"SafeMath.sol\":801:804   */\n      tag_45\n        /* \"SafeMath.sol\":801:816   */\n      jump\t// in\n    tag_57:\n        /* \"SafeMath.sol\":794:816   */\n      swap3\n      pop\n      pop\n      pop\n        /* \"SafeMath.sol\":656:823   */\n      swap3\n      swap2\n      pop\n      pop\n      jump\t// out\n        /* \"SafeMath.sol\":49:250   */\n    tag_45:\n        /* \"SafeMath.sol\":107:114   */\n      0x00\n        /* \"SafeMath.sol\":135:136   */\n      dup1\n        /* \"SafeMath.sol\":130:131   */\n      dup4\n        /* \"SafeMath.sol\":130:136   */\n      eq\n        /* \"SafeMath.sol\":126:171   */\n      iszero\n      tag_60\n      jumpi\n        /* \"SafeMath.sol\":159:160   */\n      0x00\n        /* \"SafeMath.sol\":152:160   */\n      swap1\n      pop\n      jump(tag_59)\n        /* \"SafeMath.sol\":126:171   */\n    tag_60:\n        /* \"SafeMath.sol\":180:189   */\n      0x00\n        /* \"SafeMath.sol\":196:197   */\n      dup3\n        /* \"SafeMath.sol\":192:193   */\n      dup5\n        /* \"SafeMath.sol\":192:197   */\n      tag_61\n      swap2\n      swap1\n      tag_62\n      jump\t// in\n    tag_61:\n        /* \"SafeMath.sol\":180:197   */\n      swap1\n      pop\n        /* \"SafeMath.sol\":223:224   */\n      dup3\n        /* \"SafeMath.sol\":218:219   */\n      dup5\n        /* \"SafeMath.sol\":214:215   */\n      dup3\n        /* \"SafeMath.sol\":214:219   */\n      tag_63\n      swap2\n      swap1\n      tag_64\n      jump\t// in\n    tag_63:\n        /* \"SafeMath.sol\":214:224   */\n      eq\n        /* \"SafeMath.sol\":207:225   */\n      tag_65\n      jumpi\n      mstore(0x00, 0x4e487b7100000000000000000000000000000000000000000000000000000000)\n      mstore(0x04, 0x01)\n      revert(0x00, 0x24)\n    tag_65:\n        /* \"SafeMath.sol\":242:243   */\n      dup1\n        /* \"SafeMath.sol\":235:243   */\n      swap2\n      pop\n      pop\n        /* \"SafeMath.sol\":49:250   */\n    tag_59:\n      swap3\n      swap2\n      pop\n      pop\n      jump\t// out\n        /* \"SafeMath.sol\":256:375   */\n    tag_46:\n        /* \"SafeMath.sol\":314:321   */\n      0x00\n        /* \"SafeMath.sol\":333:342   */\n      dup1\n        /* \"SafeMath.sol\":349:350   */\n      dup3\n        /* \"SafeMath.sol\":345:346   */\n      dup5\n        /* \"SafeMath.sol\":345:350   */\n      tag_67\n      swap2\n      swap1\n      tag_64\n      jump\t// in\n    tag_67:\n        /* \"SafeMath.sol\":333:350   */\n      swap1\n      pop\n        /* \"SafeMath.sol\":367:368   */\n      dup1\n        /* \"SafeMath.sol\":360:368   */\n      swap2\n      pop\n      pop\n        /* \"SafeMath.sol\":256:375   */\n      swap3\n      swap2\n      pop\n      pop\n      jump\t// out\n        /* \"SafeMath.sol\":507:650   */\n    tag_54:\n        /* \"SafeMath.sol\":565:572   */\n      0x00\n        /* \"SafeMath.sol\":584:593   */\n      dup1\n        /* \"SafeMath.sol\":600:601   */\n      dup3\n        /* \"SafeMath.sol\":596:597   */\n      dup5\n        /* \"SafeMath.sol\":596:601   */\n      tag_69\n      swap2\n      swap1\n      tag_70\n      jump\t// in\n    tag_69:\n        /* \"SafeMath.sol\":584:601   */\n      swap1\n      pop\n        /* \"SafeMath.sol\":623:624   */\n      dup4\n        /* \"SafeMath.sol\":618:619   */\n      dup2\n        /* \"SafeMath.sol\":618:624   */\n      lt\n      iszero\n        /* \"SafeMath.sol\":611:625   */\n      tag_71\n      jumpi\n      mstore(0x00, 0x4e487b7100000000000000000000000000000000000000000000000000000000)\n      mstore(0x04, 0x01)\n      revert(0x00, 0x24)\n    tag_71:\n        /* \"SafeMath.sol\":642:643   */\n      dup1\n        /* \"SafeMath.sol\":635:643   */\n      swap2\n      pop\n      pop\n        /* \"SafeMath.sol\":507:650   */\n      swap3\n      swap2\n      pop\n      pop\n      jump\t// out\n        /* \"SafeMath.sol\":381:501   */\n    tag_56:\n        /* \"SafeMath.sol\":439:446   */\n      0x00\n        /* \"SafeMath.sol\":470:471   */\n      dup3\n        /* \"SafeMath.sol\":465:466   */\n      dup3\n        /* \"SafeMath.sol\":465:471   */\n      gt\n      iszero\n        /* \"SafeMath.sol\":458:472   */\n      tag_73\n      jumpi\n      mstore(0x00, 0x4e487b7100000000000000000000000000000000000000000000000000000000)\n      mstore(0x04, 0x01)\n      revert(0x00, 0x24)\n    tag_73:\n        /* \"SafeMath.sol\":493:494   */\n      dup2\n        /* \"SafeMath.sol\":489:490   */\n      dup4\n        /* \"SafeMath.sol\":489:494   */\n      tag_74\n      swap2\n      swap1\n      tag_36\n      jump\t// in\n    tag_74:\n        /* \"SafeMath.sol\":482:494   */\n      swap1\n      pop\n        /* \"SafeMath.sol\":381:501   */\n      swap3\n      swap2\n      pop\n      pop\n      jump\t// out\n        /* \"#utility.yul\":7:146   */\n    tag_76:\n      0x00\n        /* \"#utility.yul\":91:97   */\n      dup2\n        /* \"#utility.yul\":78:98   */\n      calldataload\n        /* \"#utility.yul\":69:98   */\n      swap1\n      pop\n        /* \"#utility.yul\":107:140   */\n      tag_78\n        /* \"#utility.yul\":134:139   */\n      dup2\n        /* \"#utility.yul\":107:140   */\n      tag_79\n      jump\t// in\n    tag_78:\n        /* \"#utility.yul\":59:146   */\n      swap3\n      swap2\n      pop\n      pop\n      jump\t// out\n        /* \"#utility.yul\":152:291   */\n    tag_80:\n      0x00\n        /* \"#utility.yul\":236:242   */\n      dup2\n        /* \"#utility.yul\":223:243   */\n      calldataload\n        /* \"#utility.yul\":214:243   */\n      swap1\n      pop\n        /* \"#utility.yul\":252:285   */\n      tag_82\n        /* \"#utility.yul\":279:284   */\n      dup2\n        /* \"#utility.yul\":252:285   */\n      tag_83\n      jump\t// in\n    tag_82:\n        /* \"#utility.yul\":204:291   */\n      swap3\n      swap2\n      pop\n      pop\n      jump\t// out\n        /* \"#utility.yul\":297:559   */\n    tag_9:\n      0x00\n        /* \"#utility.yul\":405:407   */\n      0x20\n        /* \"#utility.yul\":393:402   */\n      dup3\n        /* \"#utility.yul\":384:391   */\n      dup5\n        /* \"#utility.yul\":380:403   */\n      sub\n        /* \"#utility.yul\":376:408   */\n      slt\n        /* \"#utility.yul\":373:375   */\n      iszero\n      tag_85\n      jumpi\n        /* \"#utility.yul\":421:422   */\n      0x00\n        /* \"#utility.yul\":418:419   */\n      dup1\n        /* \"#utility.yul\":411:423   */\n      revert\n        /* \"#utility.yul\":373:375   */\n    tag_85:\n        /* \"#utility.yul\":464:465   */\n      0x00\n        /* \"#utility.yul\":489:542   */\n      tag_86\n        /* \"#utility.yul\":534:541   */\n      dup5\n        /* \"#utility.yul\":525:531   */\n      dup3\n        /* \"#utility.yul\":514:523   */\n      dup6\n        /* \"#utility.yul\":510:532   */\n      add\n        /* \"#utility.yul\":489:542   */\n      tag_76\n      jump\t// in\n    tag_86:\n        /* \"#utility.yul\":479:542   */\n      swap2\n      pop\n        /* \"#utility.yul\":435:552   */\n      pop\n        /* \"#utility.yul\":363:559   */\n      swap3\n      swap2\n      pop\n      pop\n      jump\t// out\n        /* \"#utility.yul\":565:827   */\n    tag_19:\n      0x00\n        /* \"#utility.yul\":673:675   */\n      0x20\n        /* \"#utility.yul\":661:670   */\n      dup3\n        /* \"#utility.yul\":652:659   */\n      dup5\n        /* \"#utility.yul\":648:671   */\n      sub\n        /* \"#utility.yul\":644:676   */\n      slt\n        /* \"#utility.yul\":641:643   */\n      iszero\n      tag_88\n      jumpi\n        /* \"#utility.yul\":689:690   */\n      0x00\n        /* \"#utility.yul\":686:687   */\n      dup1\n        /* \"#utility.yul\":679:691   */\n      revert\n        /* \"#utility.yul\":641:643   */\n    tag_88:\n        /* \"#utility.yul\":732:733   */\n      0x00\n        /* \"#utility.yul\":757:810   */\n      tag_89\n        /* \"#utility.yul\":802:809   */\n      dup5\n        /* \"#utility.yul\":793:799   */\n      dup3\n        /* \"#utility.yul\":782:791   */\n      dup6\n        /* \"#utility.yul\":778:800   */\n      add\n        /* \"#utility.yul\":757:810   */\n      tag_80\n      jump\t// in\n    tag_89:\n        /* \"#utility.yul\":747:810   */\n      swap2\n      pop\n        /* \"#utility.yul\":703:820   */\n      pop\n        /* \"#utility.yul\":631:827   */\n      swap3\n      swap2\n      pop\n      pop\n      jump\t// out\n        /* \"#utility.yul\":833:951   */\n    tag_90:\n        /* \"#utility.yul\":920:944   */\n      tag_92\n        /* \"#utility.yul\":938:943   */\n      dup2\n        /* \"#utility.yul\":920:944   */\n      tag_93\n      jump\t// in\n    tag_92:\n        /* \"#utility.yul\":915:918   */\n      dup3\n        /* \"#utility.yul\":908:945   */\n      mstore\n        /* \"#utility.yul\":898:951   */\n      pop\n      pop\n      jump\t// out\n        /* \"#utility.yul\":957:1274   */\n    tag_94:\n      0x00\n        /* \"#utility.yul\":1120:1187   */\n      tag_96\n        /* \"#utility.yul\":1184:1186   */\n      0x13\n        /* \"#utility.yul\":1179:1182   */\n      dup4\n        /* \"#utility.yul\":1120:1187   */\n      tag_97\n      jump\t// in\n    tag_96:\n        /* \"#utility.yul\":1113:1187   */\n      swap2\n      pop\n        /* \"#utility.yul\":1217:1238   */\n      0x43616c6c6572206973206e6f74206f776e657200000000000000000000000000\n        /* \"#utility.yul\":1213:1214   */\n      0x00\n        /* \"#utility.yul\":1208:1211   */\n      dup4\n        /* \"#utility.yul\":1204:1215   */\n      add\n        /* \"#utility.yul\":1197:1239   */\n      mstore\n        /* \"#utility.yul\":1265:1267   */\n      0x20\n        /* \"#utility.yul\":1260:1263   */\n      dup3\n        /* \"#utility.yul\":1256:1268   */\n      add\n        /* \"#utility.yul\":1249:1268   */\n      swap1\n      pop\n        /* \"#utility.yul\":1103:1274   */\n      swap2\n      swap1\n      pop\n      jump\t// out\n        /* \"#utility.yul\":1280:1398   */\n    tag_98:\n        /* \"#utility.yul\":1367:1391   */\n      tag_100\n        /* \"#utility.yul\":1385:1390   */\n      dup2\n        /* \"#utility.yul\":1367:1391   */\n      tag_101\n      jump\t// in\n    tag_100:\n        /* \"#utility.yul\":1362:1365   */\n      dup3\n        /* \"#utility.yul\":1355:1392   */\n      mstore\n        /* \"#utility.yul\":1345:1398   */\n      pop\n      pop\n      jump\t// out\n        /* \"#utility.yul\":1404:1626   */\n    tag_15:\n      0x00\n        /* \"#utility.yul\":1535:1537   */\n      0x20\n        /* \"#utility.yul\":1524:1533   */\n      dup3\n        /* \"#utility.yul\":1520:1538   */\n      add\n        /* \"#utility.yul\":1512:1538   */\n      swap1\n      pop\n        /* \"#utility.yul\":1548:1619   */\n      tag_103\n        /* \"#utility.yul\":1616:1617   */\n      0x00\n        /* \"#utility.yul\":1605:1614   */\n      dup4\n        /* \"#utility.yul\":1601:1618   */\n      add\n        /* \"#utility.yul\":1592:1598   */\n      dup5\n        /* \"#utility.yul\":1548:1619   */\n      tag_90\n      jump\t// in\n    tag_103:\n        /* \"#utility.yul\":1502:1626   */\n      swap3\n      swap2\n      pop\n      pop\n      jump\t// out\n        /* \"#utility.yul\":1632:2051   */\n    tag_50:\n      0x00\n        /* \"#utility.yul\":1836:1838   */\n      0x20\n        /* \"#utility.yul\":1825:1834   */\n      dup3\n        /* \"#utility.yul\":1821:1839   */\n      add\n        /* \"#utility.yul\":1813:1839   */\n      swap1\n      pop\n        /* \"#utility.yul\":1885:1894   */\n      dup2\n        /* \"#utility.yul\":1879:1883   */\n      dup2\n        /* \"#utility.yul\":1875:1895   */\n      sub\n        /* \"#utility.yul\":1871:1872   */\n      0x00\n        /* \"#utility.yul\":1860:1869   */\n      dup4\n        /* \"#utility.yul\":1856:1873   */\n      add\n        /* \"#utility.yul\":1849:1896   */\n      mstore\n        /* \"#utility.yul\":1913:2044   */\n      tag_105\n        /* \"#utility.yul\":2039:2043   */\n      dup2\n        /* \"#utility.yul\":1913:2044   */\n      tag_94\n      jump\t// in\n    tag_105:\n        /* \"#utility.yul\":1905:2044   */\n      swap1\n      pop\n        /* \"#utility.yul\":1803:2051   */\n      swap2\n      swap1\n      pop\n      jump\t// out\n        /* \"#utility.yul\":2057:2279   */\n    tag_22:\n      0x00\n        /* \"#utility.yul\":2188:2190   */\n      0x20\n        /* \"#utility.yul\":2177:2186   */\n      dup3\n        /* \"#utility.yul\":2173:2191   */\n      add\n        /* \"#utility.yul\":2165:2191   */\n      swap1\n      pop\n        /* \"#utility.yul\":2201:2272   */\n      tag_107\n        /* \"#utility.yul\":2269:2270   */\n      0x00\n        /* \"#utility.yul\":2258:2267   */\n      dup4\n        /* \"#utility.yul\":2254:2271   */\n      add\n        /* \"#utility.yul\":2245:2251   */\n      dup5\n        /* \"#utility.yul\":2201:2272   */\n      tag_98\n      jump\t// in\n    tag_107:\n        /* \"#utility.yul\":2155:2279   */\n      swap3\n      swap2\n      pop\n      pop\n      jump\t// out\n        /* \"#utility.yul\":2285:2454   */\n    tag_97:\n      0x00\n        /* \"#utility.yul\":2403:2409   */\n      dup3\n        /* \"#utility.yul\":2398:2401   */\n      dup3\n        /* \"#utility.yul\":2391:2410   */\n      mstore\n        /* \"#utility.yul\":2443:2447   */\n      0x20\n        /* \"#utility.yul\":2438:2441   */\n      dup3\n        /* \"#utility.yul\":2434:2448   */\n      add\n        /* \"#utility.yul\":2419:2448   */\n      swap1\n      pop\n        /* \"#utility.yul\":2381:2454   */\n      swap3\n      swap2\n      pop\n      pop\n      jump\t// out\n        /* \"#utility.yul\":2460:2765   */\n    tag_70:\n      0x00\n        /* \"#utility.yul\":2519:2539   */\n      tag_110\n        /* \"#utility.yul\":2537:2538   */\n      dup3\n        /* \"#utility.yul\":2519:2539   */\n      tag_101\n      jump\t// in\n    tag_110:\n        /* \"#utility.yul\":2514:2539   */\n      swap2\n      pop\n        /* \"#utility.yul\":2553:2573   */\n      tag_111\n        /* \"#utility.yul\":2571:2572   */\n      dup4\n        /* \"#utility.yul\":2553:2573   */\n      tag_101\n      jump\t// in\n    tag_111:\n        /* \"#utility.yul\":2548:2573   */\n      swap3\n      pop\n        /* \"#utility.yul\":2707:2708   */\n      dup3\n        /* \"#utility.yul\":2639:2705   */\n      0xffffffffffffffffffffffffffffffffffffffffffffffffffffffffffffffff\n        /* \"#utility.yul\":2635:2709   */\n      sub\n        /* \"#utility.yul\":2632:2633   */\n      dup3\n        /* \"#utility.yul\":2629:2710   */\n      gt\n        /* \"#utility.yul\":2626:2628   */\n      iszero\n      tag_112\n      jumpi\n        /* \"#utility.yul\":2713:2731   */\n      tag_113\n      tag_114\n      jump\t// in\n    tag_113:\n        /* \"#utility.yul\":2626:2628   */\n    tag_112:\n        /* \"#utility.yul\":2757:2758   */\n      dup3\n        /* \"#utility.yul\":2754:2755   */\n      dup3\n        /* \"#utility.yul\":2750:2759   */\n      add\n        /* \"#utility.yul\":2743:2759   */\n      swap1\n      pop\n        /* \"#utility.yul\":2504:2765   */\n      swap3\n      swap2\n      pop\n      pop\n      jump\t// out\n        /* \"#utility.yul\":2771:2956   */\n    tag_64:\n      0x00\n        /* \"#utility.yul\":2828:2848   */\n      tag_116\n        /* \"#utility.yul\":2846:2847   */\n      dup3\n        /* \"#utility.yul\":2828:2848   */\n      tag_101\n      jump\t// in\n    tag_116:\n        /* \"#utility.yul\":2823:2848   */\n      swap2\n      pop\n        /* \"#utility.yul\":2862:2882   */\n      tag_117\n        /* \"#utility.yul\":2880:2881   */\n      dup4\n        /* \"#utility.yul\":2862:2882   */\n      tag_101\n      jump\t// in\n    tag_117:\n        /* \"#utility.yul\":2857:2882   */\n      swap3\n      pop\n        /* \"#utility.yul\":2901:2902   */\n      dup3\n        /* \"#utility.yul\":2891:2893   */\n      tag_118\n      jumpi\n        /* \"#utility.yul\":2906:2924   */\n      tag_119\n      tag_120\n      jump\t// in\n    tag_119:\n        /* \"#utility.yul\":2891:2893   */\n    tag_118:\n        /* \"#utility.yul\":2948:2949   */\n      dup3\n        /* \"#utility.yul\":2945:2946   */\n      dup3\n        /* \"#utility.yul\":2941:2950   */\n      div\n        /* \"#utility.yul\":2936:2950   */\n      swap1\n      pop\n        /* \"#utility.yul\":2813:2956   */\n      swap3\n      swap2\n      pop\n      pop\n      jump\t// out\n        /* \"#utility.yul\":2962:3310   */\n    tag_62:\n      0x00\n        /* \"#utility.yul\":3025:3045   */\n      tag_122\n        /* \"#utility.yul\":3043:3044   */\n      dup3\n        /* \"#utility.yul\":3025:3045   */\n      tag_101\n      jump\t// in\n    tag_122:\n        /* \"#utility.yul\":3020:3045   */\n      swap2\n      pop\n        /* \"#utility.yul\":3059:3079   */\n      tag_123\n        /* \"#utility.yul\":3077:3078   */\n      dup4\n        /* \"#utility.yul\":3059:3079   */\n      tag_101\n      jump\t// in\n    tag_123:\n        /* \"#utility.yul\":3054:3079   */\n      swap3\n      pop\n        /* \"#utility.yul\":3247:3248   */\n      dup2\n        /* \"#utility.yul\":3179:3245   */\n      0xffffffffffffffffffffffffffffffffffffffffffffffffffffffffffffffff\n        /* \"#utility.yul\":3175:3249   */\n      div\n        /* \"#utility.yul\":3172:3173   */\n      dup4\n        /* \"#utility.yul\":3169:3250   */\n      gt\n        /* \"#utility.yul\":3164:3165   */\n      dup3\n        /* \"#utility.yul\":3157:3166   */\n      iszero\n        /* \"#utility.yul\":3150:3167   */\n      iszero\n        /* \"#utility.yul\":3146:3251   */\n      and\n        /* \"#utility.yul\":3143:3145   */\n      iszero\n      tag_124\n      jumpi\n        /* \"#utility.yul\":3254:3272   */\n      tag_125\n      tag_114\n      jump\t// in\n    tag_125:\n        /* \"#utility.yul\":3143:3145   */\n    tag_124:\n        /* \"#utility.yul\":3302:3303   */\n      dup3\n        /* \"#utility.yul\":3299:3300   */\n      dup3\n        /* \"#utility.yul\":3295:3304   */\n      mul\n        /* \"#utility.yul\":3284:3304   */\n      swap1\n      pop\n        /* \"#utility.yul\":3010:3310   */\n      swap3\n      swap2\n      pop\n      pop\n      jump\t// out\n        /* \"#utility.yul\":3316:3507   */\n    tag_36:\n      0x00\n        /* \"#utility.yul\":3376:3396   */\n      tag_127\n        /* \"#utility.yul\":3394:3395   */\n      dup3\n        /* \"#utility.yul\":3376:3396   */\n      tag_101\n      jump\t// in\n    tag_127:\n        /* \"#utility.yul\":3371:3396   */\n      swap2\n      pop\n        /* \"#utility.yul\":3410:3430   */\n      tag_128\n        /* \"#utility.yul\":3428:3429   */\n      dup4\n        /* \"#utility.yul\":3410:3430   */\n      tag_101\n      jump\t// in\n    tag_128:\n        /* \"#utility.yul\":3405:3430   */\n      swap3\n      pop\n        /* \"#utility.yul\":3449:3450   */\n      dup3\n        /* \"#utility.yul\":3446:3447   */\n      dup3\n        /* \"#utility.yul\":3443:3451   */\n      lt\n        /* \"#utility.yul\":3440:3442   */\n      iszero\n      tag_129\n      jumpi\n        /* \"#utility.yul\":3454:3472   */\n      tag_130\n      tag_114\n      jump\t// in\n    tag_130:\n        /* \"#utility.yul\":3440:3442   */\n    tag_129:\n        /* \"#utility.yul\":3499:3500   */\n      dup3\n        /* \"#utility.yul\":3496:3497   */\n      dup3\n        /* \"#utility.yul\":3492:3501   */\n      sub\n        /* \"#utility.yul\":3484:3501   */\n      swap1\n      pop\n        /* \"#utility.yul\":3361:3507   */\n      swap3\n      swap2\n      pop\n      pop\n      jump\t// out\n        /* \"#utility.yul\":3513:3609   */\n    tag_93:\n      0x00\n        /* \"#utility.yul\":3579:3603   */\n      tag_132\n        /* \"#utility.yul\":3597:3602   */\n      dup3\n        /* \"#utility.yul\":3579:3603   */\n      tag_133\n      jump\t// in\n    tag_132:\n        /* \"#utility.yul\":3568:3603   */\n      swap1\n      pop\n        /* \"#utility.yul\":3558:3609   */\n      swap2\n      swap1\n      pop\n      jump\t// out\n        /* \"#utility.yul\":3615:3741   */\n    tag_133:\n      0x00\n        /* \"#utility.yul\":3692:3734   */\n      0xffffffffffffffffffffffffffffffffffffffff\n        /* \"#utility.yul\":3685:3690   */\n      dup3\n        /* \"#utility.yul\":3681:3735   */\n      and\n        /* \"#utility.yul\":3670:3735   */\n      swap1\n      pop\n        /* \"#utility.yul\":3660:3741   */\n      swap2\n      swap1\n      pop\n      jump\t// out\n        /* \"#utility.yul\":3747:3824   */\n    tag_101:\n      0x00\n        /* \"#utility.yul\":3813:3818   */\n      dup2\n        /* \"#utility.yul\":3802:3818   */\n      swap1\n      pop\n        /* \"#utility.yul\":3792:3824   */\n      swap2\n      swap1\n      pop\n      jump\t// out\n        /* \"#utility.yul\":3830:4010   */\n    tag_114:\n        /* \"#utility.yul\":3878:3955   */\n      0x4e487b7100000000000000000000000000000000000000000000000000000000\n        /* \"#utility.yul\":3875:3876   */\n      0x00\n        /* \"#utility.yul\":3868:3956   */\n      mstore\n        /* \"#utility.yul\":3975:3979   */\n      0x11\n        /* \"#utility.yul\":3972:3973   */\n      0x04\n        /* \"#utility.yul\":3965:3980   */\n      mstore\n        /* \"#utility.yul\":3999:4003   */\n      0x24\n        /* \"#utility.yul\":3996:3997   */\n      0x00\n        /* \"#utility.yul\":3989:4004   */\n      revert\n        /* \"#utility.yul\":4016:4196   */\n    tag_120:\n        /* \"#utility.yul\":4064:4141   */\n      0x4e487b7100000000000000000000000000000000000000000000000000000000\n        /* \"#utility.yul\":4061:4062   */\n      0x00\n        /* \"#utility.yul\":4054:4142   */\n      mstore\n        /* \"#utility.yul\":4161:4165   */\n      0x12\n        /* \"#utility.yul\":4158:4159   */\n      0x04\n        /* \"#utility.yul\":4151:4166   */\n      mstore\n        /* \"#utility.yul\":4185:4189   */\n      0x24\n        /* \"#utility.yul\":4182:4183   */\n      0x00\n        /* \"#utility.yul\":4175:4190   */\n      revert\n        /* \"#utility.yul\":4202:4324   */\n    tag_79:\n        /* \"#utility.yul\":4275:4299   */\n      tag_139\n        /* \"#utility.yul\":4293:4298   */\n      dup2\n        /* \"#utility.yul\":4275:4299   */\n      tag_93\n      jump\t// in\n    tag_139:\n        /* \"#utility.yul\":4268:4273   */\n      dup2\n        /* \"#utility.yul\":4265:4300   */\n      eq\n        /* \"#utility.yul\":4255:4257   */\n      tag_140\n      jumpi\n        /* \"#utility.yul\":4314:4315   */\n      0x00\n        /* \"#utility.yul\":4311:4312   */\n      dup1\n        /* \"#utility.yul\":4304:4316   */\n      revert\n        /* \"#utility.yul\":4255:4257   */\n    tag_140:\n        /* \"#utility.yul\":4245:4324   */\n      pop\n      jump\t// out\n        /* \"#utility.yul\":4330:4452   */\n    tag_83:\n        /* \"#utility.yul\":4403:4427   */\n      tag_142\n        /* \"#utility.yul\":4421:4426   */\n      dup2\n        /* \"#utility.yul\":4403:4427   */\n      tag_101\n      jump\t// in\n    tag_142:\n        /* \"#utility.yul\":4396:4401   */\n      dup2\n        /* \"#utility.yul\":4393:4428   */\n      eq\n        /* \"#utility.yul\":4383:4385   */\n      tag_143\n      jumpi\n        /* \"#utility.yul\":4442:4443   */\n      0x00\n        /* \"#utility.yul\":4439:4440   */\n      dup1\n        /* \"#utility.yul\":4432:4444   */\n      revert\n        /* \"#utility.yul\":4383:4385   */\n    tag_143:\n        /* \"#utility.yul\":4373:4452   */\n      pop\n      jump\t// out\n\n    auxdata: 0xa264697066735822122071ed16acb0fb42208a4b3155344e0df58149cfeb300be62b51a18d548956f39764736f6c63430008000033\n}\n",
    "bytecode": {
      "linkReferences": {},
      "object": "608060405261012c60015534801561001657600080fd5b50336000806101000a81548173ffffffffffffffffffffffffffffffffffffffff021916908373ffffffffffffffffffffffffffffffffffffffff16021790555060008054906101000a900473ffffffffffffffffffffffffffffffffffffffff1673ffffffffffffffffffffffffffffffffffffffff16600073ffffffffffffffffffffffffffffffffffffffff167f342827c97908e5e2f71151c08502a66d44b6f758e3ac2f1de95f02eb95f0a73560405160405180910390a36108b3806100e16000396000f3fe60806040526004361061004a5760003560e01c80633e3518e91461004f578063893d20e81461006b578063a118c2af14610096578063a6f9dae1146100d3578063c5ac0ded146100fc575b600080fd5b61006960048036038101906100649190610589565b610127565b005b34801561007757600080fd5b5061008061024b565b60405161008d9190610639565b60405180910390f35b3480156100a257600080fd5b506100bd60048036038101906100b891906105b2565b610274565b6040516100ca9190610674565b60405180910390f35b3480156100df57600080fd5b506100fa60048036038101906100f59190610589565b6102aa565b005b34801561010857600080fd5b506101116103f5565b60405161011e9190610674565b60405180910390f35b600061013234610274565b905060008054906101000a900473ffffffffffffffffffffffffffffffffffffffff1673ffffffffffffffffffffffffffffffffffffffff166108fc829081150290604051600060405180830381858888f1935050505015801561019a573d6000803e3d6000fd5b508173ffffffffffffffffffffffffffffffffffffffff166108fc82346101c19190610781565b9081150290604051600060405180830381858888f193505050501580156101ec573d6000803e3d6000fd5b503373ffffffffffffffffffffffffffffffffffffffff168273ffffffffffffffffffffffffffffffffffffffff167f8be0079c531659141344cd1fd0a4f28419497f9722a3daafe3b4186f6b6457e060405160405180910390a35050565b60008060009054906101000a900473ffffffffffffffffffffffffffffffffffffffff16905090565b600080610283836001546103fb565b9050600061029e61029683600154610436565b6127106104a5565b90508092505050919050565b60008054906101000a900473ffffffffffffffffffffffffffffffffffffffff1673ffffffffffffffffffffffffffffffffffffffff163373ffffffffffffffffffffffffffffffffffffffff1614610338576040517f08c379a000000000000000000000000000000000000000000000000000000000815260040161032f90610654565b60405180910390fd5b8073ffffffffffffffffffffffffffffffffffffffff1660008054906101000a900473ffffffffffffffffffffffffffffffffffffffff1673ffffffffffffffffffffffffffffffffffffffff167f342827c97908e5e2f71151c08502a66d44b6f758e3ac2f1de95f02eb95f0a73560405160405180910390a3806000806101000a81548173ffffffffffffffffffffffffffffffffffffffff021916908373ffffffffffffffffffffffffffffffffffffffff16021790555050565b60015481565b60008061040884846104c0565b90506000610417826001610512565b905061042c61042682866104a5565b85610436565b9250505092915050565b600080831415610449576000905061049f565b600082846104579190610727565b905082848261046691906106f6565b1461049a577f4e487b7100000000000000000000000000000000000000000000000000000000600052600160045260246000fd5b809150505b92915050565b60008082846104b491906106f6565b90508091505092915050565b60008082846104cf91906106a0565b905083811015610508577f4e487b7100000000000000000000000000000000000000000000000000000000600052600160045260246000fd5b8091505092915050565b60008282111561054b577f4e487b7100000000000000000000000000000000000000000000000000000000600052600160045260246000fd5b81836105579190610781565b905092915050565b60008135905061056e8161084f565b92915050565b60008135905061058381610866565b92915050565b60006020828403121561059b57600080fd5b60006105a98482850161055f565b91505092915050565b6000602082840312156105c457600080fd5b60006105d284828501610574565b91505092915050565b6105e4816107b5565b82525050565b60006105f760138361068f565b91507f43616c6c6572206973206e6f74206f776e6572000000000000000000000000006000830152602082019050919050565b610633816107e7565b82525050565b600060208201905061064e60008301846105db565b92915050565b6000602082019050818103600083015261066d816105ea565b9050919050565b6000602082019050610689600083018461062a565b92915050565b600082825260208201905092915050565b60006106ab826107e7565b91506106b6836107e7565b9250827fffffffffffffffffffffffffffffffffffffffffffffffffffffffffffffffff038211156106eb576106ea6107f1565b5b828201905092915050565b6000610701826107e7565b915061070c836107e7565b92508261071c5761071b610820565b5b828204905092915050565b6000610732826107e7565b915061073d836107e7565b9250817fffffffffffffffffffffffffffffffffffffffffffffffffffffffffffffffff0483118215151615610776576107756107f1565b5b828202905092915050565b600061078c826107e7565b9150610797836107e7565b9250828210156107aa576107a96107f1565b5b828203905092915050565b60006107c0826107c7565b9050919050565b600073ffffffffffffffffffffffffffffffffffffffff82169050919050565b6000819050919050565b7f4e487b7100000000000000000000000000000000000000000000000000000000600052601160045260246000fd5b7f4e487b7100000000000000000000000000000000000000000000000000000000600052601260045260246000fd5b610858816107b5565b811461086357600080fd5b50565b61086f816107e7565b811461087a57600080fd5b5056fea264697066735822122071ed16acb0fb42208a4b3155344e0df58149cfeb300be62b51a18d548956f39764736f6c63430008000033",
      "opcodes": "PUSH1 0x80 PUSH1 0x40 MSTORE PUSH2 0x12C PUSH1 0x1 SSTORE CALLVALUE DUP1 ISZERO PUSH2 0x16 JUMPI PUSH1 0x0 DUP1 REVERT JUMPDEST POP CALLER PUSH1 0x0 DUP1 PUSH2 0x100 EXP DUP2 SLOAD DUP2 PUSH20 0xFFFFFFFFFFFFFFFFFFFFFFFFFFFFFFFFFFFFFFFF MUL NOT AND SWAP1 DUP4 PUSH20 0xFFFFFFFFFFFFFFFFFFFFFFFFFFFFFFFFFFFFFFFF AND MUL OR SWAP1 SSTORE POP PUSH1 0x0 DUP1 SLOAD SWAP1 PUSH2 0x100 EXP SWAP1 DIV PUSH20 0xFFFFFFFFFFFFFFFFFFFFFFFFFFFFFFFFFFFFFFFF AND PUSH20 0xFFFFFFFFFFFFFFFFFFFFFFFFFFFFFFFFFFFFFFFF AND PUSH1 0x0 PUSH20 0xFFFFFFFFFFFFFFFFFFFFFFFFFFFFFFFFFFFFFFFF AND PUSH32 0x342827C97908E5E2F71151C08502A66D44B6F758E3AC2F1DE95F02EB95F0A735 PUSH1 0x40 MLOAD PUSH1 0x40 MLOAD DUP1 SWAP2 SUB SWAP1 LOG3 PUSH2 0x8B3 DUP1 PUSH2 0xE1 PUSH1 0x0 CODECOPY PUSH1 0x0 RETURN INVALID PUSH1 0x80 PUSH1 0x40 MSTORE PUSH1 0x4 CALLDATASIZE LT PUSH2 0x4A JUMPI PUSH1 0x0 CALLDATALOAD PUSH1 0xE0 SHR DUP1 PUSH4 0x3E3518E9 EQ PUSH2 0x4F JUMPI DUP1 PUSH4 0x893D20E8 EQ PUSH2 0x6B JUMPI DUP1 PUSH4 0xA118C2AF EQ PUSH2 0x96 JUMPI DUP1 PUSH4 0xA6F9DAE1 EQ PUSH2 0xD3 JUMPI DUP1 PUSH4 0xC5AC0DED EQ PUSH2 0xFC JUMPI JUMPDEST PUSH1 0x0 DUP1 REVERT JUMPDEST PUSH2 0x69 PUSH1 0x4 DUP1 CALLDATASIZE SUB DUP2 ADD SWAP1 PUSH2 0x64 SWAP2 SWAP1 PUSH2 0x589 JUMP JUMPDEST PUSH2 0x127 JUMP JUMPDEST STOP JUMPDEST CALLVALUE DUP1 ISZERO PUSH2 0x77 JUMPI PUSH1 0x0 DUP1 REVERT JUMPDEST POP PUSH2 0x80 PUSH2 0x24B JUMP JUMPDEST PUSH1 0x40 MLOAD PUSH2 0x8D SWAP2 SWAP1 PUSH2 0x639 JUMP JUMPDEST PUSH1 0x40 MLOAD DUP1 SWAP2 SUB SWAP1 RETURN JUMPDEST CALLVALUE DUP1 ISZERO PUSH2 0xA2 JUMPI PUSH1 0x0 DUP1 REVERT JUMPDEST POP PUSH2 0xBD PUSH1 0x4 DUP1 CALLDATASIZE SUB DUP2 ADD SWAP1 PUSH2 0xB8 SWAP2 SWAP1 PUSH2 0x5B2 JUMP JUMPDEST PUSH2 0x274 JUMP JUMPDEST PUSH1 0x40 MLOAD PUSH2 0xCA SWAP2 SWAP1 PUSH2 0x674 JUMP JUMPDEST PUSH1 0x40 MLOAD DUP1 SWAP2 SUB SWAP1 RETURN JUMPDEST CALLVALUE DUP1 ISZERO PUSH2 0xDF JUMPI PUSH1 0x0 DUP1 REVERT JUMPDEST POP PUSH2 0xFA PUSH1 0x4 DUP1 CALLDATASIZE SUB DUP2 ADD SWAP1 PUSH2 0xF5 SWAP2 SWAP1 PUSH2 0x589 JUMP JUMPDEST PUSH2 0x2AA JUMP JUMPDEST STOP JUMPDEST CALLVALUE DUP1 ISZERO PUSH2 0x108 JUMPI PUSH1 0x0 DUP1 REVERT JUMPDEST POP PUSH2 0x111 PUSH2 0x3F5 JUMP JUMPDEST PUSH1 0x40 MLOAD PUSH2 0x11E SWAP2 SWAP1 PUSH2 0x674 JUMP JUMPDEST PUSH1 0x40 MLOAD DUP1 SWAP2 SUB SWAP1 RETURN JUMPDEST PUSH1 0x0 PUSH2 0x132 CALLVALUE PUSH2 0x274 JUMP JUMPDEST SWAP1 POP PUSH1 0x0 DUP1 SLOAD SWAP1 PUSH2 0x100 EXP SWAP1 DIV PUSH20 0xFFFFFFFFFFFFFFFFFFFFFFFFFFFFFFFFFFFFFFFF AND PUSH20 0xFFFFFFFFFFFFFFFFFFFFFFFFFFFFFFFFFFFFFFFF AND PUSH2 0x8FC DUP3 SWAP1 DUP2 ISZERO MUL SWAP1 PUSH1 0x40 MLOAD PUSH1 0x0 PUSH1 0x40 MLOAD DUP1 DUP4 SUB DUP2 DUP6 DUP9 DUP9 CALL SWAP4 POP POP POP POP ISZERO DUP1 ISZERO PUSH2 0x19A JUMPI RETURNDATASIZE PUSH1 0x0 DUP1 RETURNDATACOPY RETURNDATASIZE PUSH1 0x0 REVERT JUMPDEST POP DUP2 PUSH20 0xFFFFFFFFFFFFFFFFFFFFFFFFFFFFFFFFFFFFFFFF AND PUSH2 0x8FC DUP3 CALLVALUE PUSH2 0x1C1 SWAP2 SWAP1 PUSH2 0x781 JUMP JUMPDEST SWAP1 DUP2 ISZERO MUL SWAP1 PUSH1 0x40 MLOAD PUSH1 0x0 PUSH1 0x40 MLOAD DUP1 DUP4 SUB DUP2 DUP6 DUP9 DUP9 CALL SWAP4 POP POP POP POP ISZERO DUP1 ISZERO PUSH2 0x1EC JUMPI RETURNDATASIZE PUSH1 0x0 DUP1 RETURNDATACOPY RETURNDATASIZE PUSH1 0x0 REVERT JUMPDEST POP CALLER PUSH20 0xFFFFFFFFFFFFFFFFFFFFFFFFFFFFFFFFFFFFFFFF AND DUP3 PUSH20 0xFFFFFFFFFFFFFFFFFFFFFFFFFFFFFFFFFFFFFFFF AND PUSH32 0x8BE0079C531659141344CD1FD0A4F28419497F9722A3DAAFE3B4186F6B6457E0 PUSH1 0x40 MLOAD PUSH1 0x40 MLOAD DUP1 SWAP2 SUB SWAP1 LOG3 POP POP JUMP JUMPDEST PUSH1 0x0 DUP1 PUSH1 0x0 SWAP1 SLOAD SWAP1 PUSH2 0x100 EXP SWAP1 DIV PUSH20 0xFFFFFFFFFFFFFFFFFFFFFFFFFFFFFFFFFFFFFFFF AND SWAP1 POP SWAP1 JUMP JUMPDEST PUSH1 0x0 DUP1 PUSH2 0x283 DUP4 PUSH1 0x1 SLOAD PUSH2 0x3FB JUMP JUMPDEST SWAP1 POP PUSH1 0x0 PUSH2 0x29E PUSH2 0x296 DUP4 PUSH1 0x1 SLOAD PUSH2 0x436 JUMP JUMPDEST PUSH2 0x2710 PUSH2 0x4A5 JUMP JUMPDEST SWAP1 POP DUP1 SWAP3 POP POP POP SWAP2 SWAP1 POP JUMP JUMPDEST PUSH1 0x0 DUP1 SLOAD SWAP1 PUSH2 0x100 EXP SWAP1 DIV PUSH20 0xFFFFFFFFFFFFFFFFFFFFFFFFFFFFFFFFFFFFFFFF AND PUSH20 0xFFFFFFFFFFFFFFFFFFFFFFFFFFFFFFFFFFFFFFFF AND CALLER PUSH20 0xFFFFFFFFFFFFFFFFFFFFFFFFFFFFFFFFFFFFFFFF AND EQ PUSH2 0x338 JUMPI PUSH1 0x40 MLOAD PUSH32 0x8C379A000000000000000000000000000000000000000000000000000000000 DUP2 MSTORE PUSH1 0x4 ADD PUSH2 0x32F SWAP1 PUSH2 0x654 JUMP JUMPDEST PUSH1 0x40 MLOAD DUP1 SWAP2 SUB SWAP1 REVERT JUMPDEST DUP1 PUSH20 0xFFFFFFFFFFFFFFFFFFFFFFFFFFFFFFFFFFFFFFFF AND PUSH1 0x0 DUP1 SLOAD SWAP1 PUSH2 0x100 EXP SWAP1 DIV PUSH20 0xFFFFFFFFFFFFFFFFFFFFFFFFFFFFFFFFFFFFFFFF AND PUSH20 0xFFFFFFFFFFFFFFFFFFFFFFFFFFFFFFFFFFFFFFFF AND PUSH32 0x342827C97908E5E2F71151C08502A66D44B6F758E3AC2F1DE95F02EB95F0A735 PUSH1 0x40 MLOAD PUSH1 0x40 MLOAD DUP1 SWAP2 SUB SWAP1 LOG3 DUP1 PUSH1 0x0 DUP1 PUSH2 0x100 EXP DUP2 SLOAD DUP2 PUSH20 0xFFFFFFFFFFFFFFFFFFFFFFFFFFFFFFFFFFFFFFFF MUL NOT AND SWAP1 DUP4 PUSH20 0xFFFFFFFFFFFFFFFFFFFFFFFFFFFFFFFFFFFFFFFF AND MUL OR SWAP1 SSTORE POP POP JUMP JUMPDEST PUSH1 0x1 SLOAD DUP2 JUMP JUMPDEST PUSH1 0x0 DUP1 PUSH2 0x408 DUP5 DUP5 PUSH2 0x4C0 JUMP JUMPDEST SWAP1 POP PUSH1 0x0 PUSH2 0x417 DUP3 PUSH1 0x1 PUSH2 0x512 JUMP JUMPDEST SWAP1 POP PUSH2 0x42C PUSH2 0x426 DUP3 DUP7 PUSH2 0x4A5 JUMP JUMPDEST DUP6 PUSH2 0x436 JUMP JUMPDEST SWAP3 POP POP POP SWAP3 SWAP2 POP POP JUMP JUMPDEST PUSH1 0x0 DUP1 DUP4 EQ ISZERO PUSH2 0x449 JUMPI PUSH1 0x0 SWAP1 POP PUSH2 0x49F JUMP JUMPDEST PUSH1 0x0 DUP3 DUP5 PUSH2 0x457 SWAP2 SWAP1 PUSH2 0x727 JUMP JUMPDEST SWAP1 POP DUP3 DUP5 DUP3 PUSH2 0x466 SWAP2 SWAP1 PUSH2 0x6F6 JUMP JUMPDEST EQ PUSH2 0x49A JUMPI PUSH32 0x4E487B7100000000000000000000000000000000000000000000000000000000 PUSH1 0x0 MSTORE PUSH1 0x1 PUSH1 0x4 MSTORE PUSH1 0x24 PUSH1 0x0 REVERT JUMPDEST DUP1 SWAP2 POP POP JUMPDEST SWAP3 SWAP2 POP POP JUMP JUMPDEST PUSH1 0x0 DUP1 DUP3 DUP5 PUSH2 0x4B4 SWAP2 SWAP1 PUSH2 0x6F6 JUMP JUMPDEST SWAP1 POP DUP1 SWAP2 POP POP SWAP3 SWAP2 POP POP JUMP JUMPDEST PUSH1 0x0 DUP1 DUP3 DUP5 PUSH2 0x4CF SWAP2 SWAP1 PUSH2 0x6A0 JUMP JUMPDEST SWAP1 POP DUP4 DUP2 LT ISZERO PUSH2 0x508 JUMPI PUSH32 0x4E487B7100000000000000000000000000000000000000000000000000000000 PUSH1 0x0 MSTORE PUSH1 0x1 PUSH1 0x4 MSTORE PUSH1 0x24 PUSH1 0x0 REVERT JUMPDEST DUP1 SWAP2 POP POP SWAP3 SWAP2 POP POP JUMP JUMPDEST PUSH1 0x0 DUP3 DUP3 GT ISZERO PUSH2 0x54B JUMPI PUSH32 0x4E487B7100000000000000000000000000000000000000000000000000000000 PUSH1 0x0 MSTORE PUSH1 0x1 PUSH1 0x4 MSTORE PUSH1 0x24 PUSH1 0x0 REVERT JUMPDEST DUP2 DUP4 PUSH2 0x557 SWAP2 SWAP1 PUSH2 0x781 JUMP JUMPDEST SWAP1 POP SWAP3 SWAP2 POP POP JUMP JUMPDEST PUSH1 0x0 DUP2 CALLDATALOAD SWAP1 POP PUSH2 0x56E DUP2 PUSH2 0x84F JUMP JUMPDEST SWAP3 SWAP2 POP POP JUMP JUMPDEST PUSH1 0x0 DUP2 CALLDATALOAD SWAP1 POP PUSH2 0x583 DUP2 PUSH2 0x866 JUMP JUMPDEST SWAP3 SWAP2 POP POP JUMP JUMPDEST PUSH1 0x0 PUSH1 0x20 DUP3 DUP5 SUB SLT ISZERO PUSH2 0x59B JUMPI PUSH1 0x0 DUP1 REVERT JUMPDEST PUSH1 0x0 PUSH2 0x5A9 DUP5 DUP3 DUP6 ADD PUSH2 0x55F JUMP JUMPDEST SWAP2 POP POP SWAP3 SWAP2 POP POP JUMP JUMPDEST PUSH1 0x0 PUSH1 0x20 DUP3 DUP5 SUB SLT ISZERO PUSH2 0x5C4 JUMPI PUSH1 0x0 DUP1 REVERT JUMPDEST PUSH1 0x0 PUSH2 0x5D2 DUP5 DUP3 DUP6 ADD PUSH2 0x574 JUMP JUMPDEST SWAP2 POP POP SWAP3 SWAP2 POP POP JUMP JUMPDEST PUSH2 0x5E4 DUP2 PUSH2 0x7B5 JUMP JUMPDEST DUP3 MSTORE POP POP JUMP JUMPDEST PUSH1 0x0 PUSH2 0x5F7 PUSH1 0x13 DUP4 PUSH2 0x68F JUMP JUMPDEST SWAP2 POP PUSH32 0x43616C6C6572206973206E6F74206F776E657200000000000000000000000000 PUSH1 0x0 DUP4 ADD MSTORE PUSH1 0x20 DUP3 ADD SWAP1 POP SWAP2 SWAP1 POP JUMP JUMPDEST PUSH2 0x633 DUP2 PUSH2 0x7E7 JUMP JUMPDEST DUP3 MSTORE POP POP JUMP JUMPDEST PUSH1 0x0 PUSH1 0x20 DUP3 ADD SWAP1 POP PUSH2 0x64E PUSH1 0x0 DUP4 ADD DUP5 PUSH2 0x5DB JUMP JUMPDEST SWAP3 SWAP2 POP POP JUMP JUMPDEST PUSH1 0x0 PUSH1 0x20 DUP3 ADD SWAP1 POP DUP2 DUP2 SUB PUSH1 0x0 DUP4 ADD MSTORE PUSH2 0x66D DUP2 PUSH2 0x5EA JUMP JUMPDEST SWAP1 POP SWAP2 SWAP1 POP JUMP JUMPDEST PUSH1 0x0 PUSH1 0x20 DUP3 ADD SWAP1 POP PUSH2 0x689 PUSH1 0x0 DUP4 ADD DUP5 PUSH2 0x62A JUMP JUMPDEST SWAP3 SWAP2 POP POP JUMP JUMPDEST PUSH1 0x0 DUP3 DUP3 MSTORE PUSH1 0x20 DUP3 ADD SWAP1 POP SWAP3 SWAP2 POP POP JUMP JUMPDEST PUSH1 0x0 PUSH2 0x6AB DUP3 PUSH2 0x7E7 JUMP JUMPDEST SWAP2 POP PUSH2 0x6B6 DUP4 PUSH2 0x7E7 JUMP JUMPDEST SWAP3 POP DUP3 PUSH32 0xFFFFFFFFFFFFFFFFFFFFFFFFFFFFFFFFFFFFFFFFFFFFFFFFFFFFFFFFFFFFFFFF SUB DUP3 GT ISZERO PUSH2 0x6EB JUMPI PUSH2 0x6EA PUSH2 0x7F1 JUMP JUMPDEST JUMPDEST DUP3 DUP3 ADD SWAP1 POP SWAP3 SWAP2 POP POP JUMP JUMPDEST PUSH1 0x0 PUSH2 0x701 DUP3 PUSH2 0x7E7 JUMP JUMPDEST SWAP2 POP PUSH2 0x70C DUP4 PUSH2 0x7E7 JUMP JUMPDEST SWAP3 POP DUP3 PUSH2 0x71C JUMPI PUSH2 0x71B PUSH2 0x820 JUMP JUMPDEST JUMPDEST DUP3 DUP3 DIV SWAP1 POP SWAP3 SWAP2 POP POP JUMP JUMPDEST PUSH1 0x0 PUSH2 0x732 DUP3 PUSH2 0x7E7 JUMP JUMPDEST SWAP2 POP PUSH2 0x73D DUP4 PUSH2 0x7E7 JUMP JUMPDEST SWAP3 POP DUP2 PUSH32 0xFFFFFFFFFFFFFFFFFFFFFFFFFFFFFFFFFFFFFFFFFFFFFFFFFFFFFFFFFFFFFFFF DIV DUP4 GT DUP3 ISZERO ISZERO AND ISZERO PUSH2 0x776 JUMPI PUSH2 0x775 PUSH2 0x7F1 JUMP JUMPDEST JUMPDEST DUP3 DUP3 MUL SWAP1 POP SWAP3 SWAP2 POP POP JUMP JUMPDEST PUSH1 0x0 PUSH2 0x78C DUP3 PUSH2 0x7E7 JUMP JUMPDEST SWAP2 POP PUSH2 0x797 DUP4 PUSH2 0x7E7 JUMP JUMPDEST SWAP3 POP DUP3 DUP3 LT ISZERO PUSH2 0x7AA JUMPI PUSH2 0x7A9 PUSH2 0x7F1 JUMP JUMPDEST JUMPDEST DUP3 DUP3 SUB SWAP1 POP SWAP3 SWAP2 POP POP JUMP JUMPDEST PUSH1 0x0 PUSH2 0x7C0 DUP3 PUSH2 0x7C7 JUMP JUMPDEST SWAP1 POP SWAP2 SWAP1 POP JUMP JUMPDEST PUSH1 0x0 PUSH20 0xFFFFFFFFFFFFFFFFFFFFFFFFFFFFFFFFFFFFFFFF DUP3 AND SWAP1 POP SWAP2 SWAP1 POP JUMP JUMPDEST PUSH1 0x0 DUP2 SWAP1 POP SWAP2 SWAP1 POP JUMP JUMPDEST PUSH32 0x4E487B7100000000000000000000000000000000000000000000000000000000 PUSH1 0x0 MSTORE PUSH1 0x11 PUSH1 0x4 MSTORE PUSH1 0x24 PUSH1 0x0 REVERT JUMPDEST PUSH32 0x4E487B7100000000000000000000000000000000000000000000000000000000 PUSH1 0x0 MSTORE PUSH1 0x12 PUSH1 0x4 MSTORE PUSH1 0x24 PUSH1 0x0 REVERT JUMPDEST PUSH2 0x858 DUP2 PUSH2 0x7B5 JUMP JUMPDEST DUP2 EQ PUSH2 0x863 JUMPI PUSH1 0x0 DUP1 REVERT JUMPDEST POP JUMP JUMPDEST PUSH2 0x86F DUP2 PUSH2 0x7E7 JUMP JUMPDEST DUP2 EQ PUSH2 0x87A JUMPI PUSH1 0x0 DUP1 REVERT JUMPDEST POP JUMP INVALID LOG2 PUSH5 0x6970667358 0x22 SLT KECCAK256 PUSH18 0xED16ACB0FB42208A4B3155344E0DF58149CF 0xEB ADDRESS SIGNEXTEND 0xE6 0x2B MLOAD LOG1 DUP14 SLOAD DUP10 JUMP RETURN SWAP8 PUSH5 0x736F6C6343 STOP ADDMOD STOP STOP CALLER "
    },
    "gasEstimates": {
      "creation": {
        "codeDepositCost": "445400",
        "executionCost": "43730",
        "totalCost": "489130"
      },
      "external": {
        "basePercent()": "1195",
        "changeOwner(address)": "24611",
        "getOwner()": "1222",
        "hederaPayable(address)": "infinite",
        "threePercent(uint256)": "infinite"
      }
    },
    "methodIdentifiers": {
      "basePercent()": "c5ac0ded",
      "changeOwner(address)": "a6f9dae1",
      "getOwner()": "893d20e8",
      "hederaPayable(address)": "3e3518e9",
      "threePercent(uint256)": "a118c2af"
    }
  },
  "storageLayout": {
    "storage": [
      {
        "astId": 5,
        "contract": "HederaSwap.sol:HederaSwap",
        "label": "owner",
        "offset": 0,
        "slot": "0",
        "type": "t_address"
      },
      {
        "astId": 8,
        "contract": "HederaSwap.sol:HederaSwap",
        "label": "basePercent",
        "offset": 0,
        "slot": "1",
        "type": "t_uint256"
      }
    ],
    "types": {
      "t_address": {
        "encoding": "inplace",
        "label": "address",
        "numberOfBytes": "20"
      },
      "t_uint256": {
        "encoding": "inplace",
        "label": "uint256",
        "numberOfBytes": "32"
      }
    }
  },
  "userdoc": {
    "kind": "user",
    "methods": {},
    "version": 1
  }
}